:06000000B031632A00008C
:0800080083018031200077081C
:10001000A0007808A1007908A2007A08A300850151
:1000200091308400001C162811182D28850191306C
:100030008400001E1D28111A2F288501913084008C
:10004000801E2428911A31282008F7002108F80082
:100050002208F9002308FA00090080313F28803186
:10006000C22A8031A22A0B00FC346034DA34F23424
:100070006634B634BE34E034FE34E63400342C1C2E
:10008000E229960121002B082000970021002A0870
:100090002000960021002108013C031C7B28031D41
:1000A000552820082B3C031C7B28F3309E0082300F
:1000B000220097003830F80021001D0883397804A9
:1000C0009D002000AF167D186B287D1021009D1C1F
:1000D0007D142000632821009D144630F7009D1CEC
:1000E0007328F70B6F281B08DA001C08DB008D1241
:1000F00022008D122100101022001014200064082C
:10010000033C031CA928031D89286308E63C031C43
:10011000A92821002F08033C03189428AF01AE0141
:1001200025009301A82821002F08F9002E08F800C7
:10013000F90CF80CF90CF80CF90C78082500910072
:10014000F90C790C3039F7001308CF397704930094
:1001500020002100A00A0319A10A20002C10AC1CC9
:10016000D928AC1026000C14F33021009E008230F8
:10017000220097004030F80021001D0883397804E0
:100180009D0020002F157D18CB287D1021009D1C7F
:100190007D142000C32821009D144630F7009D1CCB
:1001A000D328F70BCF281B08B0001C08B1001E296C
:1001B0002000AC1430302200970021001E109E1049
:1001C0001E11003023008C0028008C008D002300BD
:1001D000900021001E169E161E139E171D147430CB
:1001E000F8001D08833978049D0002302600B8000D
:1001F0009530B9000330B902031C0929213085006C
:10020000F930840000080319092907290000800B30
:100210000629B80BF82820002F1721009D1446301E
:10022000F7009D1C1529F70B11291B08C0001C089D
:10023000C100C201C30120002F1721002300A80A1A
:100240000319A90A21002C080319AD03AC032000EF
:10025000AC1A592921008C1420008C184429210043
:10026000A20A0319A30AA308031D3A292208A03CE5
:10027000031842292000AC162100A301A20120008E
:10028000AC15210058292000AC1D4B292100A301E9
:10029000A2012000AC112100A308031D532922084C
:1002A0000A3C0318562920002C162100A301A201A4
:1002B0002000E50A0319E60AE70A0319E80AE80834
:1002C000031D66296708FA3C03186829E801E7015D
:1002D00067087D3C031D8229E808031D8229AD0BB8
:1002E0007E2923005413D5132000E4019630E30047
:1002F0002300D41304302000AD002C122300D515A8
:1003000089292000670B8A29E808031D8A29230010
:10031000D51120002300C508031D9129C608031923
:10032000952945080319C603C5032200C108031D0A
:100330009C29C2080319A02941080319C203C1035B
:100340002300CA0A2200E708031DB629E808031D96
:10035000B6295C08E0005B08DF005E08E2005D088B
:10036000E10021008C1322008C139E2ADF08031D5C
:10037000BC29E0080319C52921008C1322008C1721
:100380005F080319E003DF039E2AE108031DCB2960
:10039000E2080319D42921008C1322008C13610870
:1003A0000319E203E1039E2A5C08E0005B08DF001A
:1003B0005E08E2005D08E10067080319E803E7034F
:1003C0009E2A200021001E169E161E139E171D1425
:1003D0001E109E101E11003023008C0028008C007F
:1003E00002308D000030230090003C30F8002100E6
:1003F0001D08833978049D0020002C142F16250039
:1004000091017D18092A7D1021009D1C7D14250075
:10041000012A21009D144630F7009D1C112AF70B7C
:100420000D2A1B08D2001C08D3002108003C031829
:10043000582AFF3A031D202A20082C3C0318582A6A
:100440000030FD180130003A200003192B2A013A30
:100450000319412A562A23004908013C0318382A67
:10046000C9012100101022001010FD143F2A2300A2
:1004700021001010220010142300C90A22002000BD
:10048000562A23004908013C03184E2AC9012100BD
:10049000101022001010FD10552A2300210010100A
:1004A000220010142300C90A22002000672A21001C
:1004B0002108013C031C662A031D622A20082B3CEC
:1004C000031C662A101022001010210020002100B9
:1004D0002108013C031C932A031D722A20082B3C8F
:1004E000031C932AF3309E0082302200970038309C
:1004F000F80021001D08833978049D007D18842AA6
:100500007D109D1C7D147E2A9D144630F7009D1C95
:100510008B2AF70B872A1B08DC001C08DD008D12D4
:1005200022008D16210020009601210029082000BC
:1005300097002100280820009600220020001110BA
:1005400080312428213085003330840024002B089A
:1005500084070030853D23001D082400AD002300E2
:10056000190880002400AD1CB92A23001D121D1695
:100570002400AB0A2B08173C031CAB01200091128E
:1005800080312428240060085F02031DCB2A21004B
:100590001112E02A2400213085004F3084006008C9
:1005A00084070030853D000823009A002400E00AFB
:1005B00060082F3C031CDE2A2100E02AE001210014
:1005C0002000111280312428EE302F009100B0302D
:1005D0009200C03093000630940030309500FF3018
:1005E0009800443099009A01C2309B0003309C006F
:1005F0009D012300D401D501B0312000BB2BF701B0
:10060000F8012400630803106418F707F70CF80CCE
:10061000E418F707F70CF80C6419F707F70CF80C57
:10062000E419F707F70CF80C641AF707F70CF80C45
:10063000E41AF707F70CF80C641BF707F70CF80C33
:10064000E41BF707F70CF80CB0312000C52B250090
:100650006B08ED000B08F7008B136908230091006D
:1006600025006D082300930095131515553096004D
:10067000AA309600951477088B0495183D2B151118
:1006800025006C08ED000B08F7008B136A082300A7
:10069000910025006D082300930095131515553022
:1006A0009600AA309600951477088B049518562B5F
:1006B0001511200008000B08F7008B1325006908AE
:1006C0002300910025006A08230093009513151557
:1006D00055309600AA309600951477088B0495182B
:1006E0006F2B151120000800453023009100951351
:1006F00015141308031D7E2B1A2C1A2C453091005B
:10070000951315141308FF3EFB3E0318A92B053E55
:1007100020001C2C0230E200B230E1002300A92BA3
:100720000430E2002E30E1002300A92B0630E20065
:100730008530E1002300A92B0A30E2001830E100E7
:100740002300A92B0F30E200A030E1002300A92BE9
:1007500023006430200061072400E3000030200003
:10076000623D2400E4003A302500E9003B30EA0015
:10077000240064082500EC00240063082500EB0039
:100780002000272338302500E9003930EA00200016
:1007900062082500EC00200061082500EB00200025
:1007A0002723643061022400E30000302000623B14
:1007B0002400E40036302500E9003730EA00240048
:1007C00064082500EC00240063082500EB002000ED
:1007D0002723C83061022400E30000302000623B80
:1007E0002400E40034302500E9003530EA0024001C
:1007F00064082500EC00240063082500EB002000BD
:1008000027232C3061022400E30001302000623BEA
:100810002400E40032302500E9003330EA002400EF
:1008200064082500EC00240063082500EB0020008C
:1008300027232300200008000A108A100A158207C7
:100840008A2B902B962B9C2BA22B24006308230031
:1008500091009513151413082400E5006408230083
:1008600091009513151413082400E6006608E800AB
:100870006508E700F8006808F9002000080040302B
:100880002300910095131514130803196F2C2000F1
:10089000580824006402031C572C031D6A2C6308AB
:1008A000200057020318562C24006A2C2400031041
:1008B0002000580C2400E6002000570C2400E5001E
:1008C00064086602031C6E2C031D6A2C6508630213
:1008D00003186E2C14302200BE00240023002000D8
:1008E00008004030230091009513151413080319D4
:1008F000B02C031022002D0CFA002C0CF900790802
:100900002C072400E5007A0822002D3D2400E60093
:1009100066086402031C922C031DAB2C630865025D
:10092000031CAB2C031022002D0CFA002C0CF90038
:1009300079082C022400E5007A0822002D3B2400CF
:10094000E60064086602031CAF2C031DAB2C65088F
:1009500063020318AF2C14302200BE0024002300D1
:100960002000080010302500A600F701FA01A30CB2
:10097000A20C031CC12C2408F7070318FA0A250847
:10098000FA07FA0CF70CF90CF80CA60BB72C2000A0
:100990000800213085008430840000080319DE2C13
:1009A0000530F800F701F70BD32CF80BD22C2E30C2
:1009B000F700F70BD92CDC2C800BD02C080023007F
:1009C0003108AF003008AE002F082500A300230037
:1009D0002E082500A200A5010730A4002000B224A3
:1009E00079082300AF007808AE0022006D082400CB
:1009F000E3001830E4006408F80163020318032DD3
:100A00006308F7000F2DF7010830E500E30DF70D3F
:100A1000640877020318F700F80DE50B062D230094
:100A2000AD017808AC002E08AC072F08AD3D2C08AE
:100A30008E3CAC002D08031C2D0F202D0830212DDD
:100A4000083CAD002000080021001508C0399500C1
:100A500020009501B031302C8318322D02308500F2
:100A6000AC308400F701F801F901FA012500AC016E
:100A7000AD01AE01AF012B082A0429042804031993
:100A8000712D2030B0000310A40DA50DA60DA70DEB
:100A9000AC0DAD0DAE0DAF0D2B082F02031D5A2D61
:100AA0002A082E02031D5A2D29082D02031D5A2D36
:100AB00028082C02031C6B2D2808AC022908031CF3
:100AC000290FAD022A08031C2A0FAE022B08031CB3
:100AD0002B0FAF020314F70DF80DF90DFA0DB00B43
:100AE000432D2C0880002D08813F2E08823F2F08BF
:100AF000833F200008002200360821005E07200006
:100B0000A400003021005F3D2000A500A601A70140
:100B100021005F08023C0318B42DFF3A031D942DF9
:100B20005E08F73C0318B42D2000BB0A3B08C83C04
:100B30000318B22D0330E400C630E3002200DC01CC
:100B40001E30DB00DE011430DD005E08E2005D08CF
:100B5000E1005C08E0005B08DF00E8016430E700CA
:100B6000332E2000B62D21002000BB0183100F3052
:100B70002500A7001230A6001630A500BF30A40043
:100B8000200027082500AB00200026082500AA0029
:100B9000200025082500A900200024082500A80021
:100BA00020002C257A08AB007908AA007808A90053
:100BB0007708A80083102B082500A70020002A082A
:100BC0002500A600200029082500A50020002808EF
:100BD0002500A400200027082500AB0020002608DF
:100BE0002500AA00200025082500A90020002408CF
:100BF0002500A80020002C257A082200D1007908C1
:100C0000D0007808CF007708CE0021002D082E3CB8
:100C10000318192EFF3A031D112E2C08943C0318BB
:100C2000192E2200D101D001CF01FA30CE001E2EA4
:100C300021002A30AD00F830AC0022004E08FF3C05
:100C40002100A800FF30A90022004F082100A93B85
:100C5000EF3022004E072100AA00D83022004F3D7D
:100C60002100AB00220020000800F801F901F70183
:100C7000FA0125002508031D402E240803195A2EC9
:100C80001030A6000310A20DA30DF70DFA0D2508D4
:100C90007A02031D4D2E24087702031C562E2408C9
:100CA000F702031CFA032508FA020314F80DF90DE4
:100CB000A60B422E2000080024006B082000B40080
:100CC00024006C082000B500240068086A02031C98
:100CD0008C2E031D6F2E6908670203188C2E2000CE
:100CE000B401B50A350824006E0203188B2E69087A
:100CF0000319EA03E90303106E0D200035020319FE
:100D00008A2E031C8A2E24006808EA006708E9007E
:100D10002000B5032400A72E2000B40AB501340832
:100D200024006D020318A72EE90A0319EA0A03102A
:100D30006D0D200034020319A62E031CA62E2400DC
:100D40006808EA006708E9002000B4032400690885
:100D5000F8006A08F9002000080020302500B800DB
:100D6000B401B501B601B7012F08FA002E08F90049
:100D70002D08F8002C08F7000310771CCD2E300842
:100D8000B40731080318310FB50732080318320FC2
:100D9000B60733080318330FB707B70CB60CB50CFA
:100DA000B40CFA0CF90CF80CF70CB80BBC2E2000A4
:100DB00008008310210069082500A70021006808A9
:100DC0002500A600210067082500A500210066086F
:100DD0002500A40024006A082500AB00240069084F
:100DE0002500AA00240068082500A900240067083F
:100DF0002500A80020002C257A082200A3007908ED
:100E0000A2007808A1007708A0003D0B0D2FA301D8
:100E1000A2015930A100D830A000A308031D1E2F45
:100E2000A208031D1E2F2108FC3C0318292FFF3A9E
:100E3000031D1E2F2008E83C0318292FF30AA701E1
:100E4000A601A501A4012000C701C601F401EF2FEE
:100E50002200F3012000BF08031D3B2F3E08273C62
:100E6000031C3B2F2200A701A601A501A40120001D
:100E7000C701C601EF2F2200A308031D4D2FA208B2
:100E8000031D4D2F2108073C0318572FFF3A031D60
:100E90004D2F2008FC3C0318572FA701A601A501E0
:100EA000A4012000C701C601F401EF2F2200A3080E
:100EB000031D682FA208031D682F2108013C031899
:100EC000D42FFF3A031D682F2008963C0318D42F17
:100ED00083102500A701A601D530A500F230A4009B
:100EE000220023082500AB00220022082500AA00CA
:100EF000220021082500A900220020082500A800C2
:100F000020002C257A082200CB007908CA00780836
:100F1000C9007708C8004B082500AF0022004A0826
:100F20002500AE00220049082500AD002200480837
:100F30002500AC0022004B082500B30022004A081F
:100F40002500B200220049082500B100220048080F
:100F50002500B0002000AD267A082200A7007908FD
:100F6000A6007808A5007708A400831027082500AC
:100F7000A700220026082500A6002200250825003B
:100F8000A500220024082500A400AB01AA0101301D
:100F9000A900F430A80020002C257808C7007708A5
:100FA000C600F401EF2F2200A308031DE12FA208C1
:100FB000031DE12FA108031DE12F2008FA3C0318AF
:100FC000EE2FA701A6012730A5000F30A4002000B6
:100FD000C7011430C600F401EF2F2200F40A2000EC
:100FE00008000130F70024002C082B020319F70138
:0E0FF000200008002300D401D50120000800D5
:10100000283023009100951315141308053C03198B
:1010100057293C302500E9003D30EA00EC01EB01A6
:1010200080312000272388313E302500E9003F3001
:10103000EA00EC01EB018031200027238831503099
:101040002500E9005130EA000930EC00C430EB0023
:10105000803120002723883147302500E9004830BF
:10106000EA002730EC001030EB008031200027230D
:10107000883149302500E9004A30EA002A30EC0086
:10108000F830EB0080312000272388311430250010
:10109000E9001530EA000630EC00A430EB008031A6
:1010A00020002723883116302500E9001730EA0098
:1010B0000630EC00C230EB0080312000272388315D
:1010C00018302500E9001930EA000630EC00EA305B
:1010D000EB0080312000272388311A302500E900F9
:1010E0001B30EA000730EC001230EB0080312000AA
:1010F000272388311C302500E9001D30EA00073025
:10110000EC002630EB008031200027238831253089
:101110002500E9002730EA00EC01EB0180312000D6
:10112000272388311E302500E900AA30EA008031EB
:1011300020005B2388311F302500E900AA30EA0037
:10114000803120005B23883120302500E900AA305F
:10115000EA00803120005B23883121302500E9003E
:10116000AA30EA00803120005B238831223025003C
:10117000E900AA30EA00803120005B2388312E305C
:101180002500E9002F30EA000330EC00FF30EB00CF
:10119000803120002723883124302500E9000F30DA
:1011A000EA00803120005B23883126302500E900E9
:1011B000EA01803120005B23883129302500E900D5
:1011C0005530EA00803120005B2388312A30250029
:1011D000E900EB30EA00803120005B2388314030A9
:1011E0002500E900EA01803120005B2388312B30A3
:1011F0002500E9003930EA00803120005B23883186
:101200002C302500E9004930EA00803120005B23C2
:1012100088312D302500E9000830EA0080312000B7
:101220005B23883145302500E9000230EA00803137
:1012300020005B23883180317423883143302500BE
:10124000E9000F30EA00803120005B238831423012
:101250002500E900EA01803120005B23883141301C
:101260002500E9000A30EA00803120005B23883144
:1012700044302500E900EA01803120005B238831F9
:1012800046302500E9001430EA00803120005B235D
:1012900088312A3023009100951315141308220079
:1012A000B6002000E4010A30E300E12B23004430C3
:1012B0009100951315141308C4004530910095133F
:1012C000151413082000BC008031742388313A3093
:1012D0002400E3003B30E4008031200025248831E5
:1012E0007908DA007808D90038302400E300393072
:1012F000E40080312000252488317908D80078085E
:10130000D7005A085802031C8B29031DB629570819
:101310005902031CB6290310570D2400E3002000D6
:10132000580D2400E40020005A02031CA129031DCB
:10133000B6295908240063020318A0292000B62901
:1013400020005808113C0318AC29FF3A031DB629A8
:1013500057085C3C031CB6295808013C031CBD29F6
:10136000031DB6295708F33C031CBD29BC0803190B
:10137000BD2914302200BE00200036302400E300D6
:101380003730E40080312000252488317908DC00E2
:101390007808DB005C082400E40020005B082400DF
:1013A000E300803120003F24883134302400E30002
:1013B0003530E40080312000252488317908DE00B2
:1013C0007808DD005E082400E40020005D082400A9
:1013D000E300803120003F24883132302400E300D4
:1013E0003330E40080312000252488317908E00082
:1013F0007808DF0060082400E40020005F08240073
:10140000E300803120003F2488311A302400E300BB
:101410001B30E40080312000252488317908220027
:10142000AD007808AC002D080F3C03181E2AFF3AC7
:10143000031D282A2C08CC3C031C282A2D08013C1B
:10144000031C2A2A031D282A2C088F3C031C2A2A45
:101450001430BE001C302400E3001D30E400803155
:1014600020002524883179082200AF007808AE00DA
:101470002F082400E40022002E082400E30080311D
:1014800020007124883118302400E3001930E40072
:10149000803120002524883179082200AB007808AB
:1014A000AA002B082400E40022002A082400E300FC
:1014B000803120007124883116302400E300173079
:1014C000E400803120002524883179082200A90019
:1014D0007808A80029082400E40022002808240035
:1014E000E300803120007124883114302400E300AF
:1014F0001530E4008031200025248831790821004E
:10150000EF007808EE006F082400E40021006E0868
:101510002400E30080312000712488311E30230034
:101520009100951315141308FE001F3091009513B8
:10153000151413082200B0002030230091009513E9
:10154000151413082200B1002130230091009513D7
:10155000151413082200B2002230230091009513C5
:10156000151413082200B3002E302400E3002F309E
:10157000E400803120002524883179082100AF0063
:101580007808AE0024302300910095131514130839
:101590002200B4002630230091009513151413087F
:1015A0002200ED0025302400E3002730E4008031E4
:1015B00020002524883179082300B1007808B00084
:1015C000293091009513151413082200B5002A3014
:1015D000230091009513151413082200B6002D3036
:1015E00023009100951315141308B501B4002C3095
:1015F00091009513151413082200EE002B302300E0
:101600009100951315141308B301B2003308250097
:10161000A300230032082500A200A5016430A40025
:1016200080312000B224883179082400E400780851
:10163000E30022006E08240063072300B600003098
:101640002400643D2300B7003C302400E3003D301B
:10165000E40080312000252488317908D100780801
:10166000D0003E302400E3003F30E4008031200011
:10167000252488317908D3007808D200503024001E
:10168000E3005130E40080312000252488317908BE
:101690002200DA007808D900403023009100951329
:1016A00015141308F1004130910095131514130817
:1016B000BB01BA00433091009513151413082100A3
:1016C000D101D00042302300910095131514130866
:1016D0002200BD00230035082500A30023003408A4
:1016E0002500A200A5016430A40080312000B224AE
:1016F000883179082400E4007808E30023003A08E0
:10170000240063072300B8003B082400643D230045
:10171000B900F1080319DD2B2000BC08031D922B32
:101720002300DD2B47302400E3004830E400803103
:1017300020002524883179082400E4007808E3009B
:101740006408273C031CAE2B031DAA2B63080F3C27
:10175000031CAE2B14302200BE0024004930E300ED
:101760004A30E400803120002524883179082400A3
:10177000E4007808E30022002D082500A3002200E1
:101780002C082500A200A5010330A4008031200010
:10179000B22488317908FA007808240064087A02B3
:1017A000031CDC2B031DD82B780863020318DC2BE9
:1017B00014302200BE00240023002000E401643025
:1017C000E300B031CD2B23005808033A2000031961
:1017D000052C073A03194C2C103A0319A72C013A8F
:1017E0000319072D033A03195F2D013A0319B72D89
:1017F000093A03190F2E013A0319602E3F3A0319D3
:10180000B12E013A0319022F522F04302300D800C1
:101810002F00121E092C23005508F700D51B132C8E
:101820002F00A6122300F71F182C2F00A616230046
:10183000771B1D2C2F0026132300771F222C2F002F
:1018400026172300F71A272C2F00A6132300F71EB4
:101850002C2C2F00A6172300771A312C2F002711CC
:101860002300771E362C2F0027152300F7193B2C59
:101870002F00B2102300F71D402C2F00B2142300BC
:101880007719452C2F0027132300771D4A2C2F0092
:10189000271723002000522F14302300D8002F00D8
:1018A000121E502C23005408F700D41B5A2C2F0072
:1018B000B2132300F71F5F2C2F00B2172300771BF2
:1018C000642C2F0026102300771F692C2F0026146C
:1018D0002300F71A6E2C2F00A6102300F71E732C7E
:1018E0002F00A6142300771A782C2F00261123002E
:1018F000771E7D2C2F0026152300F719822C2F0030
:1019000032132300F71D872C2F003217230077197D
:101910008C2C2F00B3102300771D912C2F00B314B3
:101920002300F718962C2F00A6112300F71C9B2CE0
:101930002F00A61523007718A02C2F0026122300B5
:10194000771CA52C2F00261623002000522F2F1CB9
:10195000AF2C2F101E302300D8002000522F15303E
:101960002300D8004C088031200033208831240027
:10197000E3002F00121EBA2C24006308F700E31BBB
:10198000C42C2F00AC102400F71FC92C2F00AC145E
:101990002400771BCE2C2F0021112400771FD32C7D
:1019A0002F0021152400F71AD82C2F00A012240094
:1019B000F71EDD2C2F00A0162400771AE22C2F0032
:1019C000A0112400771EE72C2F00A0152400F71982
:1019D000EC2C2F0020122400F71DF12C2F002016D4
:1019E00024007719F62C2F00A0132400771DFB2C60
:1019F0002F00A0172400F718002D2F00201324001B
:101A0000F71C052D2F00201724002000522F163020
:101A10002300D8004D088031200033208831240075
:101A2000E3002F00121E122D24006308F700E31BB1
:101A30001C2D2F0021132400F71F212D2F0021170B
:101A40002400771B262D2F00AD102400771F2B2D8F
:101A50002F00AD142400F71A302D2F00A010240001
:101A6000F71E352D2F00A0142400771A3A2D2F00D1
:101A7000AC132400771E3F2D2F00AC172400F7195C
:101A8000442D2F0020102400F71D492D2F00201475
:101A9000240077194E2D2F002C132400771D532D71
:101AA0002F002C172400F718582D2F002011240088
:101AB000F71C5D2D2F00201524002000522F173019
:101AC0002300D8004E0880312000332088312400C4
:101AD000E3002F00121E6A2D24006308F700E31BA9
:101AE000742D2F00AF102400F71F792D2F00AF1495
:101AF0002400771B7E2D2F0024112400771F832DB7
:101B00002F0024152400F71A882D2F00A31224007B
:101B1000F71E8D2D2F00A3162400771A922D2F006B
:101B2000A3112400771E972D2F00A3152400F71969
:101B30009C2D2F0023122400F71DA12D2F0023160A
:101B400024007719A62D2F00A3132400771DAB2D99
:101B50002F00A3172400F718B02D2F002313240003
:101B6000F71CB52D2F00231724002000522F03301F
:101B70002300D8004F088031200033208831240012
:101B8000E3002F00121EC22D24006308F700E31BA0
:101B9000CC2D2F0024132400F71FD12D2F00241744
:101BA0002400771BD62D2F00B0102400771FDB2DCB
:101BB0002F00B0142400F71AE02D2F00A3102400EA
:101BC000F71EE52D2F00A3142400771AEA2D2F000D
:101BD000AF132400771EEF2D2F00AF172400F71945
:101BE000F42D2F0023102400F71DF92D2F002314AE
:101BF00024007719FE2D2F002F132400771D032EAC
:101C00002F002F172400F718082E2F00231124006F
:101C1000F71C0D2E2F00231524002000522F1F30FB
:101C20002300D8002F00121E132E23005008F700A7
:101C3000D01B1D2E2F00AC102300F71F222E2F00CB
:101C4000AC142300771B272E2F0021112300771FB0
:101C50002C2E2F0021152300F71A312E2F00A01251
:101C60002300F71E362E2F00A0162300771A3B2ED6
:101C70002F00A0112300771E402E2F00A015230057
:101C8000F719452E2F0020122300F71D4A2E2F0092
:101C90002016230077194F2E2F00A0132300771D45
:101CA000542E2F00A0172300F718592E2F002013B1
:101CB0002300F71C5E2E2F00201723002000522F38
:101CC00020302300D8002F00121E642E230051085C
:101CD000F700D11B6E2E2F0021132300F71F732E48
:101CE0002F0021172300771B782E2F00AD10230023
:101CF000771F7D2E2F00AD142300F71A822E2F00A0
:101D0000A0102300F71E872E2F00A0142300771A9F
:101D10008C2E2F00AC132300771E912E2F00AC17B2
:101D20002300F719962E2F0020102300F71D9B2E5D
:101D30002F00201423007719A02E2F002C1323002E
:101D4000771DA52E2F002C172300F718AA2E2F0081
:101D500020112300F71CAF2E2F0020152300200098
:101D6000522F21302300D8002F00121EB52E230041
:101D70005208F700D21BBF2E2F00AF102300F71F11
:101D8000C42E2F00AF142300771BC92E2F0024115F
:101D90002300771FCE2E2F0024152300F71AD32EF1
:101DA0002F00A3122300F71ED82E2F00A316230006
:101DB000771ADD2E2F00A3112300771EE22E2F00AD
:101DC000A3152300F719E72E2F0023122300F71D78
:101DD000EC2E2F00231623007719F12E2F00A313CA
:101DE0002300771DF62E2F00A3172300F718FB2ED4
:101DF0002F0023132300F71C002F2F00231723008D
:101E00002000522F03302300D8002F00121E062F6F
:101E100023005308F700D31B102F2F002413230097
:101E2000F71F152F2F0024172300771B1A2F2F00C1
:101E3000B0102300771F1F2F2F00B0142300F71AB4
:101E4000242F2F00A3102300F71E292F2F00A314E7
:101E50002300771A2E2F2F00AF132300771E332F66
:101E60002F00AF172300F719382F2F00231023005E
:101E7000F71D3D2F2F00231423007719422F2F0029
:101E80002F132300771D472F2F002F172300F7183C
:101E90004C2F2F0023112300F71C512F2F00231547
:101EA00023002000B031372C2400670821003802BD
:101EB0002500A400240068082100393B2500A50066
:101EC0002400690821003A3B2500A60024006A0886
:101ED00021003B3B2500A700200824006B02F700EF
:101EE0002500210824006C3BF8002500220824006E
:101EF0006D3BF9002500230824006E3BFA00250005
:101F0000AB007908AA007808A9007708A80027087C
:101F1000AF002608AE002508AD002408AC002B0851
:101F2000B3002A08B2002908B1002808B0008031A7
:101F30002000AD268831770824006B022300DB00E7
:101F4000780824006C3B2300DC00790824006D3BFA
:101F50002300DD007A0824006E3B2300DE005B08CE
:101F6000F7005C08F8005D08F9005E08FA00200040
:101F700008002600B3010130B400023032023402FE
:101F80000318CC2F3408300784000030313D850021
:101F90000008B306B40ABD2F3308F800200008007B
:101FA0002600B201310832020318F72F32082F073A
:101FB00084000030303D85000008B3003308B400D1
:101FC000213085004F30840024005F0884070030F2
:101FD000853D2600340880002400DF0A5F082F3C7E
:101FE000031CDF01210011162600B20AD22F2000A7
:0C1FF0000800B0311F2EAC17B0311F2EBE
:10200000831021006D082500A70021006C08250021
:10201000A60021006B082500A50021006A08250004
:10202000A400AB01AA01A9010A30A8008031200058
:102030002C2590317A082400EE007908ED0078080C
:10204000EC007708EB0083106E082500A700240041
:102050006D082500A60024006C082500A5002400BA
:102060006B082500A40024006A082500AB002400AA
:1020700069082500AA00240068082500A90024009A
:1020800067082500A800803120002C2590317808B1
:10209000BF007708BE0022003D08023C031D562801
:1020A00001302000BF009030BE00220020003D081B
:1020B0000C3C031C6228C101C0010130BF009030FC
:1020C000BE00F3282200A308031D7C28A208031DDC
:1020D0007C282108043C031C7C28031D732820084D
:1020E000AF3C031C7C282000C101C0010130BF00AF
:1020F0009030BE00F328220020003F08003C031867
:102100008C28FF3A031D88283E08363C03188C288B
:10211000C101C001F401F328BF08031D93283E0844
:10212000163C0318DF2814303E072400EB00003073
:1021300020003F3D2400EC0003302500A300E830E0
:10214000A20024006C082500A50024006B082500CF
:10215000A40080312000352690312200CB01CA0135
:102160007908C9007808C8004B082500AF00220094
:102170004A082500AE00220049082500AD002200D3
:1021800048082500AC0022004B082500B3002200BF
:102190004A082500B200220049082500B1002200AB
:1021A00048082500B00080312000AD2690311F3056
:1021B0007707C0000030783DC100F401F328BF0864
:1021C000031DE6283E08023C0318EC280430C10039
:1021D0004C30C000F401F328C101C0010130BF0040
:1021E0009030BE00F40A08006D08F7006E08FA008F
:1021F0007A08031DFF280A30770203190F297A088D
:10220000031D06290F30770203199C2903307A0237
:10221000031D0E29ED30770203195F2C942E8031B7
:102220007B25903173081E3C03181929E401A03066
:10223000E30074080A3C03182029E401A530E300F8
:10224000BD0A3D080F3C031827290F30BD002200AE
:102250003D0B2B292E292300551722002300541053
:1022600026000D1027000D142000AF12E408031DF6
:102270003D296308953C031898293A080A3C031D38
:102280006A29BA014D082500A30020004C0825004A
:10229000A200A5010A30A40080312000352690312B
:1022A0007908CF007808CE00CD01CC01490825007F
:1022B000A300200048082500A200A5010A30A400C0
:1022C00080312000352690317908CB007808CA008B
:1022D000C901C801220024082000C80722002508DF
:1022E0002000C93D4008CC074108CD3DBA0A51083D
:1022F0004102031C9829031D81294008500203183C
:1023000098294108D1004008D0003C302500E90060
:102310003D30EA00200051082500EC002000500864
:102320002500EB008031200027239031EA01E901EC
:10233000EE010F30ED00942EAF1EFC29AF122100EC
:102340005A085C072400E30021005B085D3D24007F
:10235000E4000310640C2100D9002400630C210068
:10236000D80058085E02031DB92959085F020319F5
:10237000F72959082400E800210058082400E70044
:1023800021005F082400EA0021005E082400E90023
:10239000220052082400EB00220053082400EC0025
:1023A000ED010530EE00803120005C269031790887
:1023B0002100E1007808E000200034082200D2006B
:1023C000200035082200D300210060085E02031DB2
:1023D000ED2961085F020319F6296108DF00600832
:1023E000DE00803120007B2590312100FB29220076
:1023F000D201D30121002000210020081B3C031D35
:10240000062A210B062A2000B01421002108003CD6
:1024100003185D2CFF3A031D112A20082C3C0318D9
:102420005D2C2000E408031D192A6308953C03185D
:10243000E42B2500AF010B30AE009030AD00F03042
:10244000AC00B301B201210055082500B100210004
:1024500054082500B00080312000AD2690317A0864
:102460002400E6007908E5007808E4007708E30036
:1024700021005408FF3CF7000330FA005508FA3BEE
:1024800077082400E7007A08E80083106608250032
:10249000A700240065082500A60024006408250084
:1024A000A500240063082500A400AB01AA012400B4
:1024B00068082500A900240067082500A8008031CD
:1024C00020002C2590317A082100E9007908E800E5
:1024D0007808E7007708E6006908023C0318892AB3
:1024E000FF3A031D852A6808E63C0318892AFF3A4B
:1024F000031D852A6708FB3C0318892AFF3A031D40
:10250000852A6608183C0318892AFF30E300E20098
:10251000A82A831069082500A70021006808250063
:10252000A600210067082500A500210066082500F7
:10253000A400AB01AA010330A900E830A800803153
:1025400020002C25903178082100E3007708E20074
:10255000BB08031DB52ABA08031DB52AB908031D17
:10256000B52A3808313C0318C62A2400EA01E901DB
:1025700021006F082400E80021006E082400E70015
:1025800080312000D9269031E42B2100BB08031DA7
:10259000D32ABA08031DD32AB908031DD32A380841
:1025A000273C0318092B2400EA01E901E80128303F
:1025B000E700EE01ED01220029082400EC002200D2
:1025C00028082400EB002500A301A20121006F08C8
:1025D0002500A10021006E082500A0008831200000
:1025E000542790317A082400E6007908E50078083D
:1025F000E4007708E3006608EA006508E90064087B
:10260000E8006308E70080312000D9269031E42BF0
:102610002100BB08031D162BBA08031D162BB90891
:10262000031D162B38081D3C03184C2B2400EA010F
:10263000E901E8011E30E700EE01ED0122002B0860
:102640002400EC0022002A082400EB002500A3014E
:10265000A201220029082500A10022002808250047
:10266000A00088312000542790317A082400E60029
:102670007908E5007808E4007708E3006608EA00D6
:102680006508E9006408E8006308E700803120007D
:10269000D9269031E42B2100BB08031D592BBA0821
:1026A000031D592BB908031D592B3808133C031877
:1026B0008F2B2400EA01E901E8011430E700EE0164
:1026C000ED0122002D082400EC0022002C0824003B
:1026D000EB002500A301A20122002B082500A10088
:1026E00022002A082500A0008831200054279031BC
:1026F0007A082400E6007908E5007808E400770805
:10270000E3006608EA006508E9006408E800630879
:10271000E70080312000D9269031E42B21002200EF
:102720002F082500A30022002E082500A200A501E5
:102730000B30A40080312000B224903179082400AD
:10274000E4007808E30064082500A300240063087F
:102750002500A200A5010A30A40080312000352602
:10276000903179082400E4007808E300EA01E901E7
:10277000E801E701EE01ED016408EC006308EB00FD
:102780002500A301A20122002D082500A10022009E
:102790002C082500A00088312000542790317A08A9
:1027A0002400E6007908E5007808E4007708E300F3
:1027B0006608EA006508E9006408E8006308E700C5
:1027C00080312000D926903126000D1420003015CC
:1027D000B0102200A708031D002CA608031D002C22
:1027E0002000530822002502031C322C031D002C5C
:1027F000240820005202031CFF2B2200322C22004E
:10280000A708031D112CA608031D112C2508263C22
:102810000318172CFF3A031D112C24080F3C031832
:10282000172C27302000D3000F30D20022002508BB
:102830002000D300220024082000D2003E302500D2
:10284000E9003F30EA00200053082500EC0020009A
:1028500052082500EB008031200027239031EC0145
:10286000EB0122003D08023C031D3F2C2100A10189
:10287000A0012000EE010A30ED00942E220020007D
:10288000E408031D472C63081E3C0318592CFF3035
:102890002100A900D730A800D930AB001730AA001A
:1028A00023005513541403302000EE00ED30ED00EA
:1028B0005C2CEE010A30ED0021002000942E210056
:1028C0002008033C031D6B2C2108053C031D6B2CC9
:1028D0002000301421002108043C0318932EFF3AF5
:1028E000031D762C2008143C0318932E2000E408C6
:1028F000031D7E2C6308953C03188A2E220038089D
:10290000023C03188E2CFF3A031D8A2C3708FE3C2C
:1029100003188E2C0330B800FE30B7002500AF013D
:102920000F30AE004230AD004030AC00B301B20118
:10293000220038082500B100220037082500B00029
:1029400080312000AD2690317A082400E600790815
:10295000E5007808E4007708E30022003708FF3C30
:10296000F7000330FA003808FA3B77082400E70044
:102970007A08E800831066082500A700240065088F
:102980002500A600240064082500A5002400630893
:102990002500A400AB01AA01240068082500A900B5
:1029A000240067082500A800803120002C259031E4
:1029B0007A082100ED007908EC007808EB00770830
:1029C000EA006D08023C0318022DFF3A031DFA2CA1
:1029D0006C08E63C0318022DFF3A031DFA2C6B0825
:1029E000F73C0318022DFF3A031DFA2C6A08303C0D
:1029F0000318022D0330ED00E730EC00F830EB0057
:102A00003030EA0083106D082500A70021006C0813
:102A10002500A60021006B082500A50021006A08FA
:102A20002500A400AB01AA010330A900E830A800EA
:102A3000803120002C25903178082100E5007708AE
:102A4000E400BB08031D2E2DBA08031D2E2DB90866
:102A5000031D2E2D3808313C03183D2D2400EA01BA
:102A6000E901200060082400E80020005F0824003D
:102A7000E70020000020542E2100BB08031D4A2D32
:102A8000BA08031D4A2DB908031D4A2D3808273CF2
:102A900003187E2D2400EA01E901E8012830E7004F
:102AA000EE01ED0120005E082400EC0020005D082E
:102AB0002400EB002500A301A201200060082500EE
:102AC000A10020005F082500A000883120005427C5
:102AD00090317A082400E6007908E5007808E400DF
:102AE0007708E3006608EA006508E9006408E80082
:102AF0006308E70020000020542E2100BB08031DBE
:102B00008B2DBA08031D8B2DB908031D8B2D38089A
:102B10001D3C0318BF2D2400EA01E901E8011E3025
:102B2000E700EE01ED0120005C082400EC0020002D
:102B30005B082400EB002500A301A20120005E0831
:102B40002500A10020005D082500A000883120009C
:102B5000542790317A082400E6007908E5007808C7
:102B6000E4007708E3006608EA006508E900640805
:102B7000E8006308E70020000020542E2100BB0875
:102B8000031DCC2DBA08031DCC2DB908031DCC2D77
:102B90003808133C0318002E2400EA01E901E8017B
:102BA0001430E700EE01ED01200058082400EC008D
:102BB000200057082400EB002500A301A2012000FB
:102BC0005C082500A10020005B082500A0008831DA
:102BD0002000542790317A082400E6007908E500A7
:102BE0007808E4007708E3006608EA006508E90071
:102BF0006408E8006308E70020000020542E21004C
:102C0000200058082500A300200057082500A20036
:102C1000A5010B30A40080312000B2249031790846
:102C20002400E4007808E300200058082500A300F1
:102C3000200057082500A200A5010A30A400803119
:102C40002000B224903179082400E6007808E500DD
:102C5000EA01E901E801E701EE01ED016408EC0099
:102C60006308EB002500A301A201240066082500EB
:102C7000A100240065082500A00088312000542709
:102C800090317A082400E6007908E5007808E4002D
:102C90007708E3006608EA006508E9006408E800D0
:102CA0006308E7002000002040084202031D5C2E5C
:102CB000410843020319872E41082400E800200040
:102CC00040082400E700200043082400EA00200018
:102CD00042082400E900200032082400EB00200014
:102CE00033082400EC000230ED00EE0080312000BB
:102CF0005C2690317908C5007808C4003408B20019
:102D00003508B3004508C3004408C200892EB2014B
:102D1000B301B0152100A101A00120003010EE0187
:102D20000A30ED0021002000B0317D2C0630260055
:102D3000B4008330B3000730F700F70B9D2EA02EB0
:102D400033080319B403B303B308031DAC2E2400E6
:102D5000AD01F801C32E260024002C082B02031D10
:102D6000B42E26009B2E24002130850033308400B1
:102D70002C0884070030853D0008F800AC0A2C08B8
:102D8000173C031CAC012000080024006808230045
:102D9000D700240067082300D60024006808250017
:102DA000A300240067082500A2000330A500E83036
:102DB000A400803120003526903179082500A1003B
:102DC0007808A0002108A3002008A2000330A50075
:102DD000E830A40080312000B2249031780824002B
:102DE000E7027908E83B68082500A300240067088B
:102DF0002500A200A5016430A40080312000352602
:102E0000903179082400EE007808ED006E08250066
:102E1000A30024006D082500A200A5016430A400D1
:102E200080312000B224903178082400E70279082C
:102E3000E83B68082500A300240067082500A200DD
:102E4000A5010A30A4008031200035269031790890
:102E50002400EC007808EB006C082500A300240097
:102E60006B082500A200A5010A30A40080312000D3
:102E7000B224903178082400E7027908E83B68081A
:102E8000EA006708E9002000B108031D662F25004D
:102E9000A008031D652FA108031D652FA1010A309D
:102EA000A0002400ED08031D642FEE08031D642F0D
:102EB000EE010A30ED00EB08031D642FEC08031D42
:102EC000642FEC010A30EB002500200025002008CB
:102ED0002300CC0024006D082300CD0024006B08E3
:102EE0002300CE00240069082300CF002000080042
:102EF00021000D1122000D1521008D1022008D14CE
:102F000021008E1122008E1521000E1222000E16B5
:102F100022302400E800B830E7002000C526FF304A
:102F20002300D400D5001E30250091000C30930002
:102F300020002C1EA42F01302200DC002C30DB00EE
:102F40002000E4011430E300B0311F2E8031FA2755
:102F5000903121000D1122000D1121008D10220051
:102F60008D1021008E1122008E1121000E122200E0
:102F70000E122100AF01AE01250093012200DC01F9
:102F80000530DB00DE01DD005E08E2005D08E100E7
:102F90005C08E0005B08DF00E8010F30E700230079
:102FA000AB01AA012100CF01CE012000E4011E30B7
:102FB000E300B0311F2E0A302300CF00CE00CD0039
:102FC000CC00200008002C1EF02FA0318D2690315F
:102FD000240064082000E400240063082000E300CB
:102FE000AC1EFD2FA0318D269031240066082000F4
:0C2FF000E400240065082000E300080055
:103000002400E301E401E501E601E701E801E9014B
:10301000EA010830EB0021302500EA008330E900A6
:1030200024006B082500EB0080312000F127983147
:10303000771C012925006B082600AF0020009501B0
:1030400024002C082B02031C2728F8002B282B080F
:103050002C02183CF80026002F08780203183A28A2
:10306000200015087D3C03183828FB30F8003D2867
:10307000202826000030F8002000F80803197628E0
:103080002500EC01ED01EE01EF012600A001A101F8
:10309000A201A3010830A400F5302500EC002600B1
:1030A000A300FB30A1002130B100DC30B0002408C7
:1030B000B20088312000B927983178082600A20094
:1030C0002130B000DC30AF002408B100883120008E
:1030D000D02798318031F1279831771C73289031AF
:1030E000962698316A280030F80003292600A501A9
:1030F00025006B08260025020318962825082500C0
:103100006907840000306A3D85002600B20004088B
:10311000B1009031200096269831260032088500B3
:103120003108840078088000A50A782825006908FD
:1031300084006A08850000310008F53C031DC7289B
:10314000690884006A08850007310008F53C031D02
:10315000C728690884006A0885000631000826002F
:10316000AF0025006A082600B10025006908260086
:10317000B00025006B082600B20088312000B92776
:103180009831780826002F020319FC282500260014
:10319000A601A701A801A901AA01AB01AC01AD01DB
:1031A0000830AE00F530A600AD00FA30AB0021309B
:1031B000B100E630B0002E08B20088312000B927F7
:1031C000983178082600AC002130B000E630AF001E
:1031D0002E08B10088312000D02798318031F127A6
:1031E0009831771CF728903196269831EE280030D8
:1031F000F8000329002926000130F80020000329E7
:1032000003290030F800F8080319022FF5302400D4
:10321000EC00ED01EE01EF012500A001A101A201EA
:10322000A3000830A40024006408A03A2000031979
:103230003229013A0319C729033A03196C2A133AB0
:103240000319CB2A033A0319802B733A0319052D6E
:10325000033A0319F52D013A0319392E123A0319CD
:103260009E2E022F2300B301240065082300B20024
:10327000240066082200EE002300B5012400670840
:103280002300B400BB01240068082300BA000B0827
:10329000F7008B132B30910032089300951315150E
:1032A00055309600AA309600951477088B0495182F
:1032B000572915110B08F7008B132C3091002200B1
:1032C0006E08230093009513151555309600AA300B
:1032D0009600951477088B0495186C2915110B0826
:1032E000F7008B132D3091003408930095131515BA
:1032F00055309600AA309600951477088B049518DF
:103300007F2915110B08F7008B13413091003A0803
:1033100093009513151555309600AA309600951414
:1033200077088B04951892291511A0302400ED0020
:10333000EE01EF012500A001A10121302600B1001E
:103340008C30B000250024082600B200883120000F
:10335000B927983178082500A20080312000F12794
:103360009831771CB9299031962698312500AD29DE
:10337000200021302600B0008C30AF00250024084A
:103380002600B10088312000D0279831022F250077
:10339000A501A601A701A801A901AA01AB01AC01E1
:1033A000AD01AE01AF01B001B101B2010E30B30009
:1033B000F530A500A130A600220035082500A700A1
:1033C000220036082500A800210036082500A900A3
:1033D000210037082500AA0021005E082500AB0067
:1033E00021005F082500AC00210062082500AD0027
:1033F000210063082500AE0020003E082500AF0034
:1034000020003F082500B00001303302953E8400C3
:10341000213085000318850AF53080000230330220
:10342000953EE9002130EA000318EA0A213026001F
:10343000B1009530B000250033082600B200883175
:103440002000B927983125006A08850069088400A2
:1034500078088000A1302400ED0025003308240006
:10346000EE00EF012500A001A10121302600B100EE
:103470008C30B000250024082600B20088312000DE
:10348000B927983178082500A20080312000F12763
:103490009831771C512A9031962698312500452A7B
:1034A000200021302600B0008C30AF002500240819
:1034B0002600B10088312000D02798312130260025
:1034C000B0009530AF00250033082600B1008831E8
:1034D0002000D0279831022F24006508003A2000F0
:1034E0000319762A013A0319882A992A2200B5017C
:1034F000240066082200B50729302500E9002200D3
:1035000035082500EA00803120005B239831992A94
:103510002200B601240066082200B6072A302500E2
:10352000E900220036082500EA00803120005B23F4
:103530009831A2302400ED00EE01EF012500A0013A
:10354000A10121302600B1008C30B00025002408F4
:103550002600B20088312000B9279831780825006C
:10356000A20080312000F1279831771CBD2A9031CC
:10357000962698312500B12A200021302600B0007F
:103580008C30AF00250024082600B10088312000CF
:10359000D0279831022F13302500C700F530B40032
:1035A000B130B50022002C082500B60022002D08FD
:1035B0002500B70022002A082500B80022002B08A9
:1035C0002500B900220028082500BA002200290899
:1035D0002500BB0021006E082500BC0021006F08FB
:1035E0002500BD0022002E082500BE0022002F0865
:1035F0002500BF00220032082500C000220031084B
:103600002500C100220030082500C2007E08C3004A
:10361000220033082500C40001304702A43E840084
:10362000213085000318850AF530800002304702FA
:10363000A43EE9002130EA000318EA0A21302600FE
:10364000B100A430B000250047082600B200883140
:103650002000B927983125006A0885006908840090
:1036600078088000B1302400ED00250047082400D0
:10367000EE00EF012500A001A101023024028C3EE2
:10368000E9002130EA000318EA0A21302600B100DF
:103690008C30B000250024082600B20088312000BC
:1036A000B927983125006A088500690884007808E0
:1036B000800080312000F1279831771C652B9031F4
:1036C000962698312500592B200021302600B00085
:1036D0008C30AF00250024082600B100883120007E
:1036E000D027983121302600B000A430AF0025004B
:1036F00047082600B10088312000D0279831022FDA
:1037000024006508F63E0318C82C0A3E2000042F4A
:10371000143022006902B200210063082200AD00CB
:10372000210062082200AC0021302500E9002200BF
:1037300032082500EA00803120005B2398311A30DE
:103740002500E9001B30EA0022002D082500EC00CE
:1037500022002C082500EB0080312000272398311F
:103760002400C82C20001E3022006902B100210074
:1037700063082200AB00210062082200AA0020306A
:103780002500E900220031082500EA0080312000F0
:103790005B23983118302500E9001930EA00220037
:1037A0002B082500EC0022002A082500EB008031C0
:1037B0002000272398312400C82C20002830220024
:1037C0006902B000210063082200A90021006208FC
:1037D0002200A8001F302500E90022003008250043
:1037E000EA00803120005B23983116302500E90083
:1037F0001730EA00220029082500EC0022002808E2
:103800002500EB0080312000272398312400C82CAC
:103810002000323022006902FE0021006308EF0020
:103820006208EE001E302500E9007E08EA008031C3
:1038300020005B23983114302500E9001530EA00A0
:1038400021006F082500EC0021006E082500EB0028
:1038500080312000272398312400C82C2000240028
:1038600067082100D100D001240066082100D0079C
:103870000030D13D500822006902B30021006308E6
:103880002200AF00210062082200AE004330250074
:10389000E900210050082500EA00803120005B2368
:1038A000983122302500E900220033082500EA0083
:1038B000803120005B2398311C302500E9001D3049
:1038C000EA0022002F082500EC0022002E08250027
:1038D000EB0080312000272398312400C82C2000E1
:1038E000240066082200B20021302500E9002200F1
:1038F00032082500EA00803120005B239831240043
:10390000C82C2000240066082200B10020302500C9
:10391000E900220031082500EA00803120005B2305
:1039200098312400C82C2000240066082200B00032
:103930001F302500E900220030082500EA00803110
:1039400020005B2398312400C82C20002400660846
:10395000FE001E302500E9007E08EA0080312000CC
:103960005B2398312400C82C200024006608220024
:10397000B30022302500E900220033082500EA00C8
:10398000803120005B2398312400C82C20002400C3
:10399000B230ED00EE01EF012500A001A1010230DF
:1039A00024028C3EE9002130EA000318EA0A2130A3
:1039B0002600B1008C30B000250024082600B2009B
:1039C00088312000B927983125006A0885006908E8
:1039D00084007808800080312000F1279831771C1E
:1039E000F72C9031962698312500EB2C20002130C1
:1039F0002600B0008C30AF00250024082600B1005E
:103A000088312000D0279831022F20302500E8008F
:103A1000F530C800C130C900230032082500CA00B3
:103A200022006E082500CB00230034082500CC00BE
:103A300023003A082500CD0020002E082500CE00E6
:103A4000200040082500CF00200041082500D000BC
:103A5000220024082500D100220025082500D200DC
:103A6000200050082500D300200051082500D40074
:103A7000200052082500D500200053082500D6005C
:103A8000200069082500D70020006A082500D8001A
:103A900020006B082500D90020006C082500DA0002
:103AA00020004E082500DB0020004F082500DC0028
:103AB00020004A082500DD0020004B082500DE001C
:103AC00023002C082500DF0023002D082500E0003E
:103AD00021002E082500E10021002F082500E2002A
:103AE000E3017D19E30AE401FD19E40AE5017D1A09
:103AF000E50A01306802B83E8400213085000318D1
:103B0000850AF530800002306802B83EE9002130B5
:103B1000EA000318EA0A21302600B100B830B000EC
:103B2000250068082600B20088312000B9279831A6
:103B300025006A0885006908840078088000C13083
:103B40002400ED00250068082400EE00EF012500A8
:103B5000A001033024028C3E84002130850003182C
:103B6000850A8001023024028C3EE9002130EA00FF
:103B70000318EA0A21302600B1008C30B00025007D
:103B800024082600B20088312000B927983125008A
:103B90006A08850069088400780880008031200068
:103BA000F1279831771CDA2D90319626983125002F
:103BB000CE2D200021302600B0008C30AF00250033
:103BC00024082600B10088312000D0279831213008
:103BD0002600B000B830AF00250068082600B1000C
:103BE00088312000D0279831022F2400650FF92D4D
:103BF000FC2D7D1165187D15660FFF2D022EFD1120
:103C00006618FD15670F052E082E7D1267187D16A4
:103C1000C230ED00EE01EF012500A001A10121302D
:103C20002600B1008C30B000250024082600B20028
:103C300088312000B927983178082500A20080310A
:103C40002000F1279831771C2B2E90319626983141
:103C500025001F2E200021302600B0008C30AF0040
:103C6000250024082600B10088312000D027983193
:103C7000022F240066082100AF00AE012400650871
:103C80002100AE070030AF3DAE08031D4E2EAF0839
:103C9000031D4E2E25009301642E21002F08F900EC
:103CA0002E08F800F90CF80CF90CF80CF90C78084F
:103CB00025009100F90C790C3039F7001308CF3941
:103CC000770493000C309300C3302400ED000230E1
:103CD000250024028C3EE9002130EA000318EA0A9C
:103CE00021302600B1008C30B000250024082600C9
:103CF000B20088312000B927983125006A08850074
:103D0000690884007808800080312000F12798310C
:103D1000771C902E9031962698312500842E200015
:103D200021302600B0008C30AF002500240826008A
:103D3000B10088312000D0279831022FD301D20161
:103D4000EC01EB01D101D001EA01E901BA01C9019D
:103D5000C801CD01CC01CB01CA01CF01CE013E305B
:103D60002500E9003F30EA00200053082500EC0060
:103D7000200052082500EB008031200027239831D5
:103D80003C302500E9003D30EA00200051082500C4
:103D9000EC00200050082500EB0080312000272394
:103DA0009831D1302400ED00EE01EF012500A00193
:103DB000A10121302600B1008C30B000250024087C
:103DC0002600B20088312000B927983178082500F4
:103DD000A20080312000F1279831771CF52E903118
:103DE000962698312500E92E200021302600B000CB
:103DF0008C30AF00250024082600B1008831200057
:103E0000D0279831B031802C0A148A140A15820701
:103E1000882BB32BDE2B092C2F2C702C822C942C6E
:103E2000A62CB52C21008C1420008C184C2F2100BE
:103E3000CE0A0319CF0A0A302400E300213085009E
:103E40008330840000080319332F0530F800F70190
:103E5000F70B282FF80B272F2E30F700F70B2E2FFC
:103E6000312F800B252F21004E08963C031D3F2F3C
:103E7000CF08031D3F2F23005515892F2100CF08A0
:103E8000031D462F4E08FA3C0318492F0130CF007E
:103E9000CE012300892F200021004F08003C031889
:103EA0005B2FFF3A031D582F4E08C23C03185B2FAF
:103EB0002300892F2100CF08031D622F4E08963C56
:103EC0000318862F2300AA0A0319AB0A2100CF0189
:103ED000CE0123005511AB08031D722F2A08033CA5
:103EE0000318842F28302500E9000530EA008031CE
:103EF00020005B2398312200E4010230E300E60158
:103F00006430E50001002300892F2100CF01CE019C
:103F10002300B03120001F2E2E302400E3002F306C
:103F2000E400803120002524983179082100AF0079
:103F30007808AE002F08F9002E08F800F90CF80CEC
:103F4000F90CF80CF90C780825009100F90C790CA3
:103F50003039F7001308CF397704930090312000EF
:103F6000DB2798318031FA2798312300D401D5011D
:103F70001B30C6005830C5002000E4016930E30062
:103F80002200DC011E30DB00DE011930DD005E089E
:103F9000E2005D08E1005C08E0005B08DF00E8018A
:103FA0000330E700B03120001F2E2200DC011E305C
:103FB000DB00DE011430DD005E08E2005D08E10098
:103FC0005C08E0005B08DF00E8010230E700200049
:103FD000E801E7019031DB2798318031FA279831E9
:103FE000AC122C1208002F142300D001B630D100DF
:0A3FF0000830D200D30120000800C1
:10400000AF3021003207A4000030333DA500A601E7
:10401000A701220035082100A4020030A53BA63BE1
:10402000A73B27082500AF00210026082500AE0089
:10403000210025082500AD00210024082500AC0042
:10404000B301B2011530B1009930B00080312000C9
:10405000AD26A0317A082100A7007908A6007808CB
:10406000A5007708A400831027082500A7002100D9
:1040700026082500A600210025082500A50021000E
:1040800024082500A400AB01AA010330A900E830F0
:10409000A800803120002C25A03178082100B7002D
:1040A0007708B6000E302400E4007430E3000B30D3
:1040B000E6005430E500640821003702031C6D2837
:1040C000031D68282400630821003602031C6D28A4
:1040D00064302000D600F32821003708240066024F
:1040E000031C7F28031D7A2821003608240065025E
:1040F000031C7F2801302000D600F3282400210073
:10410000370824006402031CF428031D8F28630869
:1041100021003602031C8E282400F428240066089F
:1041200021003702031896282400F428031D9E2836
:104130003608240065020318F428210024006508CD
:104140006302E7006608643BE800E901EA016508EC
:10415000210036022400EB0066082100373B2400D2
:10416000EC00ED01EE016E082500AF0024006D08A3
:104170002500AE0024006C082500AD0024006B086B
:104180002500AC00B301B201B1016430B000803150
:104190002000AD26A0317A082500A3007908A200EE
:1041A0007808A1007708A00083102308A700220840
:1041B000A6002108A5002008A40024006A08250004
:1041C000AB00240069082500AA0024006808250027
:1041D000A900240067082500A800803120002C25B4
:1041E000A0317708D6002400200008002F142300F7
:1041F0004A083C3C0318D82ACA014B081A3C031C45
:10420000CB014B08E53E0318D42A1B3E2000DA2AD6
:10421000240063082300D000240064082300D10098
:10422000240065082300D200240066082300D30080
:10423000D42A240064082300D00024006508230049
:10424000D100240066082300D20024006708230060
:10425000D300D42A240065082300D0002400660877
:104260002300D100240067082300D200240068083E
:104270002300D300D42A240066082300D0002400A1
:1042800067082300D100240068082300D20024001E
:1042900069082300D300D42A240067082300D00033
:1042A000240068082300D100240069082300D200FC
:1042B00024006A082300D300D42A240068082300BD
:1042C000D000240069082300D10024006A082300DC
:1042D000D20024006B082300D300D42A24006908EC
:1042E0002300D00024006A082300D10024006B08BA
:1042F0002300D20024006C082300D300D42A240019
:104300006A082300D00024006B082300D100240099
:104310006C082300D20024006D082300D300D42AA7
:1043200024006B082300D00024006C082300D10077
:1043300024006D082300D20024006E082300D3005F
:10434000D42A24006C082300D00024006D08230028
:10435000D10024006E082300D20024006F0823003F
:10436000D300D42A24006D082300D00024006E0856
:104370002300D10024006F082300D200250020086C
:104380002300D300D42A24006E082300D000240088
:104390006F082300D100250020082300D20025004B
:1043A00021082300D300D42A24006F082300D00062
:1043B000250020082300D100250021082300D20079
:1043C000250022082300D300D42A2500200823003A
:1043D000D000250021082300D10025002208230059
:1043E000D200250023082300D300D42A2500210869
:1043F0002300D000250022082300D1002500230837
:104400002300D200250024082300D300D42A25004D
:1044100022082300D000250023082300D100250016
:1044200024082300D200250025082300D300D42A25
:10443000250023082300D000250024082300D100F4
:10444000250025082300D200250026082300D300DC
:10445000D42A250024082300D000250025082300A5
:10446000D100250026082300D200250027082300BC
:10447000D300D42A250025082300D00025002608D3
:104480002300D100250027082300D200250028089A
:104490002300D300D42A250026082300D0002500BD
:1044A00027082300D100250028082300D20025007A
:1044B00029082300D300D42A250027082300D00090
:1044C000250028082300D100250029082300D20058
:1044D00025002A082300D300D42A25002808230019
:1044E000D000250029082300D10025002A08230038
:1044F000D20025002B082300D300D42A2500290848
:104500002300D00025002A082300D10025002B0815
:104510002300D20025002C082300D300D42A250034
:104520002A082300D00025002B082300D1002500F5
:104530002C082300D20025002D082300D300D42A04
:1045400025002B082300D00025002C082300D100D3
:1045500025002D082300D20025002E082300D300BB
:10456000D42A25002C082300D00025002D08230084
:10457000D10025002E082300D20025002F0823009B
:10458000D300D42A25002D082300D00025002E08B2
:104590002300D10025002F082300D2002500300879
:1045A0002300D300D42A2300CB0A530BD82ACB01F3
:1045B000200008000A108A140A1182070829192904
:1045C0002A293B294C295D296E297F299029A12977
:1045D000B229C329D429E529F629072A182A292A24
:1045E0003A2A4B2A5C2A6D2A7E2A8F2AA02AB12ACF
:1045F000C22A21008C1420008C18162B03302400B2
:10460000E300E4010130E500E60163082300CC008B
:10461000240064082300CD00240065082300CE0098
:10462000240066082300CF00762B20002300440BD3
:10463000492B46080C3C0318492BFF3A031D242B39
:104640004508AC3C0318492B2000EE010F30ED006B
:104650002100A101B730A000200000202400E801C3
:10466000200056082400E70090312000C526A03124
:10467000230046080D3C0318462BFF3A031D442B2C
:104680004508D83C0318462BD416472BD412551393
:10469000762B2400E301E401E5016030E600EC3014
:1046A000E7006030E8009C30E9006030EA00EE305E
:1046B000EB00EC30EC007A30ED00FC30EE00EF0166
:1046C0002500A0010130A100A201A301A400A500C2
:1046D000A600A700A800A900AA00AB00AC00AD008E
:1046E000AE00AF00B0002000F620230021000E161F
:1046F00020000E1A8E2B21008E1520008E198E2B75
:104700009031DB27A0318031FA27A0312300CB0183
:1047100001302000E400D130E300EB2B2300C5087A
:10472000031DD82BC608031DD82B20005508F900FF
:104730005408F800F90CF80CF90CF80CF90C78088E
:1047400026009800F90C790C3039F7001A08CF3997
:1047500077049A002200DC01DB01DE01DD015E0846
:10476000E2005D08E1005C08E0005B08DF0020007B
:10477000E4019630E300C101C0012200A701A601B7
:10478000A501A4010330B800E830B7002300D4121B
:1047900021003B08BF003A08BE003908BD003808B8
:1047A000BC000330D500E830D4002000EB2B230000
:1047B000D51DE32BFF30260098001A08CF3930387A
:1047C0009A00E92B23009630260098001A08CF396A
:1047D0009A0020002C12B0311F2E2400E301E401C6
:1047E000EE30E5000830E6000A30E7009E30E800D1
:1047F000E901CF30EA003830EB000A30EC003A3003
:10480000ED00EE01EF0101302500A000A100A201A2
:10481000A301A400A500A600A700A800A900AA0063
:10482000AB00AC00AD00AE00AF00B0002000F62041
:10483000080021000D1222000D122000AE01AC1E56
:10484000442C2300CB012200DC011E30DB00DE0102
:104850001430DD005E08E2005D08E1005C08E00065
:104860005B08DF00E8010230E7002000E801E70113
:104870009031DB27A0318031FA27A031AC122C1205
:104880000130E4005E30E3002C1E642C0130B100E6
:104890002300551F582C37082400E8002300360851
:1048A0002400E70090312000C526A031632C2300AE
:1048B00039082400E800230038082400E70090317C
:1048C0002000C526A031662CB101ED2322003D0851
:1048D000023C0319892CA708031D7B2CA608031D85
:1048E0007B2C5A082502031C892C031D7B2C2408D1
:1048F00059020318892C01302000E4005930E300EC
:1049000021000D1222000D1601302000AE009D2C5A
:1049100022003D0B8C2C9E2C2000C308031D942CE0
:1049200042081E3C03189D2CE4019E30E300230046
:10493000C8010130C700D41720002200B031200088
:104940001F2EEB30AD00AC1EAC2C9831D527A0311A
:104950000130E4005E30E300ED23B01D082DB011FE
:104960002300C70A0319C80A2000C308031DBC2C72
:104970004208553C0318DE2C2300D4135416C808F3
:10498000031DC62C47082B3C0318CB2C2000E40148
:10499000BE30E300230020004308003C0318DD2C58
:1049A000FF3A031DD72C42084D3C0318DD2CE401CF
:1049B000BE30E300230054122000082DC208031D5E
:1049C000ED2CC308031DED2CE4019630E300230019
:1049D000C8010130C7002000082D2300D417480863
:1049E000003C0318062DFF3A031DFA2C4708423CF1
:1049F0000318062DD4132000E401BE30E300230089
:104A0000C8010130C7002000082D2300D417200062
:104A1000B0311F2E24006608F43C031D162D670BD1
:104A2000162D2200E8010A30E70024007C0863020A
:104A300003193C2D6308FC0065082200DC002400FB
:104A400064082200DB00240065082200DE00240048
:104A500064082200DD005E08E2005D08E1005C08F9
:104A6000E0005B08DF00240067082200E800240063
:104A700066082200E700240020000800053024001A
:104A8000E300E5010A30E4000130E700F430E6001D
:104A900020000A2526008C1027008C142400E30136
:104AA000E4010A30E5009E30E600B630E700083049
:104AB000E800B630E900EA017A30EB009E30EC0005
:104AC000ED01B630EE009E30EF002A302500A00048
:104AD000B630A1003A30A2000A30A300A401EE30A3
:104AE000A5001C30A600E030A7008030A800EE3002
:104AF000A900AA01AB010130AC00AD01AE00AF00CE
:104B0000B0002000F620B0311F2E09302400E30051
:104B1000E5010A30E4000130E700F430E60020004F
:104B20000A25AC1726008C1027008C142400E30102
:104B3000E4010A30E5009E30E600B630E7000830B8
:104B4000E800B630E900E030EA008030EB009E304B
:104B5000EC00ED017A30EE009E30EF002500A00160
:104B6000B630A1009E30A2002A30A300B630A400C7
:104B70003A30A5000A30A600A7019C30A8003A30C0
:104B8000A9000A30AA00E030AB008030AC003A3017
:104B9000AD00AE01AF010130B0002000F620B03111
:104BA0001F2E21000D1222000D1601302000AE0034
:104BB000AC1EE12D9831D527A0310130E4005E30E4
:104BC000E300C830AD00C308031DEA2D42081E3CB7
:104BD0000318082E41082400E800200040082400A3
:104BE000E70090312000C526A03101302400E30009
:104BF000E5010A30E4000130E700F430E60020006F
:104C00000A25230055135417D4115414192E2000CB
:104C100003302400E300E501E401E701E6012000A0
:104C20000A25230054112000E4019630E300BD0161
:104C30002300B03120001F2EAC1E252E9831D52721
:104C4000A0310130E4005E30E3002200A708031D1C
:104C5000362EA608031D362E5A082502031C7D2E6B
:104C6000031D362E2408590203187D2E2000E80863
:104C7000031D602E67087C3C031C602E2200250863
:104C80002400E400220024082400E3006408E80073
:104C90006308E70090312000C526A03101302400D0
:104CA000E300E5010A30E400E7011930E6002000E6
:104CB0000A25230055175417D41154107B2E2000B9
:104CC00047082400E800200046082400E70090314F
:104CD0002000C526A03102302400E300E501283081
:104CE000E400E7011930E60020000A2523005517EB
:104CF0005413D41554108A2E220003302400E300EC
:104D0000E501E401E701E60120000A25E40196300F
:104D1000E3002300B03120001F2E2C1FC82F2C13BE
:104D200050302500E9005130EA0022005A082500E1
:104D3000EC00220059082500EB00803120002723D9
:104D4000A03121302500E900220032082500EA00C8
:104D5000803120005B23A03138302500E900393054
:104D6000EA00200058082500EC0020005708250024
:104D7000EB00803120002723A03114302500E9000A
:104D80001530EA0021006F082500EC0021006E08B4
:104D90002500EB00803120002723A03116302500AC
:104DA000E9001730EA00220029082500EC00220063
:104DB00028082500EB00803120002723A03118307F
:104DC0002500E9001930EA0022002B082500EC003C
:104DD00022002A082500EB00803120002723A03183
:104DE0001A302500E9001B30EA0022002D082500BA
:104DF000EC0022002C082500EB0080312000272346
:104E0000A0311C302500E9001D30EA0022002F08E7
:104E10002500EC0022002E082500EB008031200048
:104E20002723A03132302500E9003330EA0020008A
:104E300060082500EC0020005F082500EB008031B1
:104E400020002723A03134302500E9003530EA0066
:104E500020005E082500EC0020005D082500EB0026
:104E6000803120002723A03136302500E90037307B
:104E7000EA0020005C082500EC0020005B0825000B
:104E8000EB00803120002723A0313A302500E900D3
:104E90003B30EA0020005A082500EC0020005908A9
:104EA0002500EB00803120002723A0312930250088
:104EB000E900220035082500EA00803120005B234C
:104EC000A0312A302500E900220036082500EA003A
:104ED000803120005B23A0312B302500E900230026
:104EE00032082500EA00803120005B23A0312C30FD
:104EF0002500E90022006E082500EA00803120002C
:104F00005B23A0312D302500E90023003408250063
:104F1000EA00803120005B23A03126302500E90023
:104F200022006D082500EA00803120005B23A031BB
:104F300025302500E9002730EA002300310825004C
:104F4000EC00230030082500EB00803120002723EF
:104F5000A03122302500E900220033082500EA00B4
:104F6000803120005B23A03140302500E90071082A
:104F7000EA00803120005B23A03141302500E900A8
:104F800023003A082500EA00803120005B23A0318D
:104F9000FA30AD009031DB27A0318031FA27A03103
:104FA000AC122300A701A601A501A40120002C1228
:104FB0002300CB012200DC011E30DB00DE011430B7
:104FC000DD005E08E2005D08E1005C08E0005B08CF
:104FD000DF00E8010130E700200008002F14230063
:104FE000D0012A30D1003A30D200D301200008008D
:105000002400E301E401E5016030E6001C30E70024
:105010003830E8002A30E900EA000830EB002A3096
:10502000EC00EE30ED001A30EE000830EF003A30C0
:105030002500A0002A30A100A201A3010130A40094
:10504000A500A600A700A800A900AA00AB00AC001C
:10505000AD00AE00AF00B000A0312000F620A831B6
:10506000AC1E4B282E302500E9002F30EA0021002D
:105070002F082500EC0021002E082500EB008031D0
:1050800020002723A831A0318D26A8310130E4006B
:105090006330E30076282C1E7628A0318D26A831B7
:1050A00055302100AE070130AF3DAE08031D5F282B
:1050B000AF08031D5F2825009301752821002F08E4
:1050C000F9002E08F800F90CF80CF90CF80CF90CA2
:1050D000780825009100F90C790C3039F700130895
:1050E000CF39770493000C3093002000B0311F2E8D
:1050F0002400E301E401E5012A30E600E7009E30E8
:10510000E8007A30E9000830EA001A30EB00083095
:10511000EC003A30ED002A30EE00EF012500A0014E
:105120000130A100A201A301A400A500A600A700D0
:10513000A800A900AA00AB00AC00AD00AE00AF0013
:10514000B000A0312000F620A83101302400E40096
:105150006430E3000130E6006830E5009031200063
:10516000E327A831B0311F2E05302400E400783049
:10517000E3000130E6006830E50090312000E327CD
:10518000A8312300541CD228200041082400E80044
:10519000200040082400E70090312000C526A831F7
:1051A000E2282300220025082400E400220024082D
:1051B0002400E3006408E8006308E7009031200061
:1051C000C526A831B0311F2E2400E301E401E5011A
:1051D000CF30E6000A30E7003A30E8002A30E90034
:1051E000EA009E30EB007A30EC000830ED003A30F7
:1051F000EE00EF012500A0010130A1000830A2005F
:105200001C30A3000830A4007A30A500EE30A600C0
:105210007A30A700A801A901AA010130AB00AC00B7
:10522000AD00AE00AF00B000A0312000F620A831E4
:1052300003302400E400BC30E3000130E6006930B4
:10524000E50090312000E327A831B0311F2E240063
:10525000E301E401E501CE30E6006030E7009C3078
:10526000E800FC30E900EA01EE30EB001C30EC0015
:10527000E030ED008030EE00FC30EF002500A001B2
:10528000A101CE30A2006030A3009C30A400FC300D
:10529000A500A601EE30A7001C30A800E030A90050
:1052A0008030AA00FC30AB00AC01AD01AE01AF0113
:1052B000B001A0312000F620A83103302400E40022
:1052C000BD30E3000130E6006A30E5009031200097
:1052D000E327A831B0311F2E2400E301E401E501EA
:1052E0003E30E6003A30E7000A30E800E900EE30F0
:1052F000EA00EB017A30EC00EE30ED00E030EE0039
:105300008030EF003A302500A000B630A100A201A5
:10531000A3010130A4007A30A500EE30A6007A3057
:10532000A700A801A901AA010130AB00AC00AD00A3
:10533000AE00AF00B000A0312000F620A83123005D
:105340005413D51303302400E400BE30E3000130D1
:10535000E6006D30E50090312000E327A831B03140
:105360001F2E2400E301E401E501CF30E6000A30FE
:10537000E7003830E8009E30E9003E30EA00EE30C9
:10538000EB00EC017A30ED009E30EE00EF01EE30E4
:105390002500A0001C30A100EE30A2000A30A300BE
:1053A0002A30A400A500EE30A600A701A801A9019B
:1053B0000130AA00AB00AC00AD00AE00AF00B00001
:1053C000A0312000F620A83103302400E400C030D2
:1053D000E3000330E600CA30E50090312000E32707
:1053E000A831B0311F2E05302400E4007830E300EE
:1053F0000130E6006D30E50090312000E327A83150
:105400002400E301E401E5013E30E6003A30E70024
:105410000A30E800E900EE30EA007A30EB003A307A
:10542000EC00ED01EE010130EF003A302500A00064
:10543000B630A100A201A3010130A4007A30A5007A
:10544000EE30A6007A30A700A801A901AA01013018
:10545000AB00AC00AD00AE00AF00B000A03120004A
:10546000F620A831B0311F2E2400E301E401E5014C
:10547000B630E6009E30E700E030E8008030E9001A
:105480009E30EA003A30EB00EC01BE30ED009E3079
:10549000EE002A30EF009E302500A0000A30A10067
:1054A000EE30A2001C30A300A401A5010130A6002B
:1054B000A7019E30A8003230A9001230AA00CF30D8
:1054C000AB001C30AC003A30AD00B630AE00083056
:1054D000AF000130B000A0312000F620A831053027
:1054E0002400E4007830E3000530E6007830E50081
:1054F00090312000E327A831B0311F2E240064082A
:10550000263C0318AA2AFF3A031D8A2A63080F3C87
:105510000318AA2A2300D417240064082500A30036
:10552000240063082500A200A5010A30A4008031F0
:1055300020003526A83179082400E6007808E50027
:105540006608E8006508E70090312000C526A8310C
:10555000B52A24002300D41324006408E80063085B
:10556000E70090312000C526A83124006308F80028
:105570006408F9002000080003302400E400BD3076
:10558000E3000130E6006A30E50090312000E327B7
:10559000A83123005413D517541CDA2A20006A08B6
:1055A0002400E400200069082400E30020007E229B
:1055B000E42A230020006C082400E40020006B088B
:1055C0002400E30020007E22B0311F2E2400E301DE
:1055D000E4019C30E500EE30E6001C30E70060306E
:1055E000E8003E30E9000A30EA00EE30EB000A3015
:1055F000EC00ED01EE019C30EF00EE302500A00044
:105600001C30A1006030A2003E30A3000A30A4008C
:10561000EE30A5000A30A600A701A8019C30A90021
:10562000EE30AA001C30AB006030AC003E30AD0064
:105630000A30AE00EE30AF000A30B000A0312000DA
:10564000F620A8312200DC01C830DB000330DE0088
:10565000E830DD00E8010230E700B03120001F2E05
:1056600005302400E4007830E3000130E6006930C2
:10567000E50090312000E327A8312300541C4E2B75
:1056800020004F082400E80020004E082400E70016
:1056900090312000C526A8315A2B230020004B084A
:1056A0002400E80020004A082400E7009031200090
:1056B000C526A831B0311F2E02302400E4006C3022
:1056C000E3000130E6006A30E50090312000E32776
:1056D000A83123005417D513541C7C2B20005108EB
:1056E0002400E800200050082400E700903120004A
:1056F000C526A831882B2300200053082400E80089
:10570000200052082400E70090312000C526A8316F
:10571000B0311F2EAC1EBB2BA0318D26A831D1017C
:10572000D001BA01EA01E901EC01EB01CF01CE01A0
:10573000CD01CC01CB01CA01C901C801D301D201FD
:105740003E302500E9003F30EA00EC01EB018031FA
:1057500020002723A8313C302500E9003D30EA0035
:10576000EC01EB01803120002723A8310130E40057
:105770006F30E300D22B2C1ECF2BA0318D26A83109
:105780000330E400BF30E30041082400E8002000BB
:1057900040082400E70090312000C526A831983148
:1057A000F327A831B0311F2E03302400E400BE30AF
:1057B000E3000130E6006D30E50090312000E32782
:1057C000A831A031EE27A831B0311F2EAC1EF62B28
:1057D000A0318D26A8310330E400CA30E300210057
:1057E0000D1222000D122000AE01182C2C1EFF2BD2
:1057F000A0318D26A8310330E400C130E30003302E
:105800002400E3002730E5001030E4000130E70019
:10581000F430E600A03120000A25A83121000D1245
:1058200022000D1601302000AE009831F327A83178
:10583000B0311F2E03302400E400C030E3000330F9
:10584000E600CA30E50090312000E327A83102309D
:105850002400E300E501E401E701E601A0312000B6
:105860000A25A83121000D1222000D122000AE01E0
:10587000A031EE27A831B0311F2EAC172400E30170
:10588000E4016F30E5009E30E600EE30E700E030E6
:10589000E8008030E9009E30EA000A30EB00EC01BD
:1058A0009E30ED002A30EE00EF019C302500A00074
:1058B0003A30A1000A30A200A301A401A5010130E1
:1058C000A600A701A8003A30A9000A30AA00E030DB
:1058D000AB008030AC003A30AD00AE01AF0101301A
:1058E000B000A0312000F620A831AC1E972C230078
:1058F000CB012200DC011E30DB00DE011430DD00B4
:105900005E08E2005D08E1005C08E0005B08DF0083
:10591000E8010230E7002000E801E7019031DB27D1
:10592000A8318031FA27A831AC122C120100B03115
:105930001F2EAC172400E301E4016F30E5009E3018
:10594000E600EE30E700E030E8008030E9009E300D
:10595000EA000A30EB00EC01EE30ED003E30EE00E4
:105960000830EF009E302500A0000A30A100E03092
:10597000A2008030A3003A30A400A501A601A7012F
:105980000130A8003A30A9000A30AA00E030AB008C
:105990008030AC003A30AD00AE01AF010130B00054
:1059A000A0312000F620A831B0311F2E2400E301E1
:1059B000E401E5017A30E6000830E700EE30E80067
:1059C000B630E900EA01CF30EB00EE30EC000A30EF
:1059D000ED00EE30EE00EF011A302500A000EE30B1
:1059E000A1007A30A2003830A3001A30A400EE30B3
:1059F000A5000A30A600A701A801A9010130AA004C
:105A0000AB00AC00AD00AE00AF00B000A031200094
:105A1000F620A83103302400E400CB30E300053049
:105A2000E6007830E50090312000E327A831B0315E
:105A30001F2E23002D082400E80023002C0824003A
:105A4000E70090312000C526A83101302400E40091
:105A50007230E3000530E6007830E5009031200038
:105A6000E327A831B0311F2E2300A708031D462DC0
:105A7000A608031D462D2508173C0318622DFF3A82
:105A8000031D462D2408383C0318622DA031200048
:105A90008D26A8312200DC011430DB00DE010A3043
:105AA000DD005E08E2005D08E1005C08E0005B08E4
:105AB000DF00E8010230E7002000E4019630E30057
:105AC000752D230020002F142300D0018E30D1002B
:105AD0000830D2002A30D3000130A4070318A50AE9
:105AE0000319A60A0319A70A2000B0311F2E2300AC
:105AF0002908163C0318E62DFF3A031D832D2808BC
