:06000000B031F22A0000FD
:0800080083018031200077081C
:10001000A0007808A1007908A2007A08A300850151
:1000200091308400001C162811182D28850191306C
:100030008400001E1D28111A2F288501913084008C
:10004000801E2428911A31282008F7002108F80082
:100050002208F9002308FA00090080315128803174
:100060009F2A80317F2A0B00FC346034DA34F2346A
:100070006634B634BE34E034FE34E6340034033043
:100080002500E402031C4F2821308500D430840071
:10009000000803194F284D280000800B4C28200031
:1000A00008002C1CFC29960121002B082000970039
:1000B00021002A082000960021002108013C031C91
:1000C0008928031D672820082B3C031C8928F3304E
:1000D0009E008230220097003830F80021001D0871
:1000E000833978049D002000AF16F1187D28F110A7
:1000F00021009D1CF1142000752821009D1446301C
:10010000F7009D1C8528F70B81281B08DE001C08C2
:10011000DF002108013C031C9728031D93282008B9
:100120002B3C031C972810102200101421002000E3
:100130006408033C031CC228031DA2286308E63C94
:10014000031CC22821003308033C0318AD28B30167
:10015000B20125009301C12821003308F9003208BB
:10016000F800F90CF80CF90CF80CF90C78082500DB
:100170009100F90C790C3039F7001308CF39770466
:10018000930020002100A00A0319A10A20002C10CE
:10019000AC1CF228AC1026000C14F33021009E0099
:1001A0008230220097004030F80021001D0883397A
:1001B00078049D0020002F15F118E428F11021008B
:1001C0009D1CF1142000DC2821009D144630F7000E
:1001D0009D1CEC28F70BE8281B08B4001C08B50090
:1001E0003829200021002108003C03183829FF3A53
:1001F000031DFE2820085E3C031838292000AC149B
:1002000030302200970021001E109E101E11003079
:1002100023008C0028008C008D002300900021001A
:100220001E169E161E139E171D147430F8001D080E
:10023000833978049D0003302500E300C730E400D3
:1002400020003F202500E30B1E2920002F1721004E
:100250009D144630F7009D1C2F29F70B2B291B08F6
:10026000C4001C08C500C601C70120002F172100CB
:100270002300AC0A0319AD0A21002C080319AD03B1
:10028000AC032000AC1A732921008C1420008C18B8
:100290005E292100A20A0319A30AA308031D5429F9
:1002A0002208A03C03185C292000AC162100A30101
:1002B000A2012000AC15210072292000AC1D652987
:1002C0002100A301A2012000AC112100A308031DFD
:1002D0006D2922080A3C0318702920002C162100E1
:1002E000A301A2012000E50A0319E60AE70A03199F
:1002F000E80AE808031D80296708FA3C03188229E8
:10030000E801E70167087D3C031D9C29E808031DFF
:100310009C29AD0B982923004F13D0132000E40132
:100320009630E3002300CF1304302000AD002C12E0
:100330002300D015A3292000670BA429E808031D7A
:10034000A4292300D01120002300C108031DAB29DC
:10035000C2080319AF2941080319C203C1032200CF
:10036000C508031DB629C6080319BA29450803198B
:10037000C603C5032300C50A2200EB08031DD029CC
:10038000EC08031DD0296008E4005F08E300620860
:10039000E6006108E50021008C1322008C137B2A03
:1003A000E308031DD629E4080319DF2921008C1373
:1003B00022008C1763080319E403E3037B2AE50892
:1003C000031DE529E6080319EE2921008C132200FC
:1003D0008C1365080319E603E5037B2A6008E40033
:1003E0005F08E3006208E6006108E5006B08031996
:1003F000EC03EB037B2A200021001E169E161E1321
:100400009E171D141E109E101E11003023008C001C
:1004100028008C0002308D000030230090003C301A
:10042000F80021001D08833978049D0020002C1459
:100430002F1625009101F118232AF11021009D1C8F
:10044000F11425001B2A21009D144630F7009D1C45
:100450002B2AF70B272A1B08D6001C08D7001010E0
:100460002200101021002108003C0318492AFF3AFD
:10047000031D3E2A20082B3C0318492A22003A0873
:100480002500E40020003F2021001010220010145D
:1004900021002108013C031C702A031D532A200857
:1004A0002B3C031C702AF3309E0082302200970000
:1004B0003830F80021001D08833978049D00F118B8
:1004C000652AF1109D1CF1145F2A9D144630F70037
:1004D0009D1C6C2AF70B682A1B08E0001C08E10031
:1004E00020009601210029082000970021002808FB
:1004F0002000960022002000111080312428213095
:1005000085002E30840024003E0884070030853D9D
:1005100023001D082400C0002300190880002400C7
:10052000C01C962A23001D121D162400BE0A3E0878
:100530002F3C031CBE01200091128031242825008D
:1005400023082202031DA82A21001112BD2A25001A
:100550002130850062308400230884070030853D07
:10056000000823009A002500A30A23082F3C031C3F
:10057000BB2A2100BD2AA3012100200011128031D5
:100580002428EE302F009100B0309200C03093004C
:100590000630940030309500FF30980044309900C8
:1005A0009A01C2309B0003309C009D012300CF01C3
:1005B000D001B03120005B2CF701F801250039088B
:1005C00003103A18F707F70CF80CBA18F707F70CEE
:1005D000F80C3A19F707F70CF80CBA19F707F70CEB
:1005E000F80C3A1AF707F70CF80CBA1AF707F70CD9
:1005F000F80C3A1BF707F70CF80CBA1BF707F70CC7
:10060000F80CB0312000652C2100111010102200D0
:10061000101425003F08C1000B08F7008B133D089C
:100620002300910025004108230093009513151520
:1006300055309600AA309600951477088B049518CB
:100640001F2B151125004008C1000B08F7008B1364
:100650003E082300910025004108230093009513D4
:10066000151555309600AA309600951477088B041E
:100670009518382B151121001114200008002100B5
:1006800011101010220010140B08F7008B13250016
:100690003E082300910025003F0823009300951396
:1006A000151555309600AA309600951477088B04DE
:1006B0009518582B15112100111420000800453001
:1006C00023009100951315141308031D692BFD2BAE
:1006D000FD2B45309100951315141308FF3EFB3E8A
:1006E0000318942B053E2000002C0230E200B230AB
:1006F000E1002300942B0430E2002E30E1002300BF
:10070000942B0630E2008530E1002300942B0A3060
:10071000E2001830E1002300942B0F30E200A030FB
:10072000E1002300942B2300643020006107D900EE
:100730000030623DDA006208D8006108D7006430FA
:100740006102DB000030623BDC00C8306102DD008A
:100750000030623BDE002C306102DF000130623B82
:10076000E0003A302500BD003B30BE0020005A08B2
:100770002500C000200059082500BF0020000423E8
:1007800038302500BD003930BE0020005808250053
:10079000C000200057082500BF0020000423363089
:1007A0002500BD003730BE0020005C082500C000D9
:1007B00020005B082500BF00200004233430250002
:1007C000BD003530BE0020005E082500C0002000BE
:1007D0005D082500BF002000042332302500BD0045
:1007E0003330BE00200060082500C00020005F08F4
:1007F0002500BF0020000423230088312000262983
:100800000A108A100A158207752B7B2B812B872BE8
:100810008D2B25003908230091009513151413081A
:100820002500BB003A082300910095131514130806
:100830002500BC003C08BE003B08BD00F8003E0897
:10084000F900200008004030230091009513151492
:1008500013080319532C2000580825003A02031CE2
:100860003B2C031D4E2C39082000570203183A2C4C
:1008700025004E2C250003102000580C2500BC003C
:100880002000570C2500BB003A083C02031C522CE8
:10089000031D4E2C3B0839020318522C1430220041
:1008A000C2002500230020000800403023009100F2
:1008B0009513151413080319942C03102200310CFE
:1008C000FA00300CF900790830072500BB007A08DF
:1008D0002200313D2500BC003C083A02031C762C66
:1008E000031D8F2C39083B02031C8F2C03102200A0
:1008F000310CFA00300CF900790830022500BB00F9
:100900007A082200313B2500BC003A083C02031C57
:10091000932C031D8F2C3B0839020318932C1430A1
:100920002200C2002500230020000800103025000E
:10093000CB00F701FA01C80CC70C031CA52C490811
:10094000F7070318FA0A4A08FA07FA0CF70CF90C29
:10095000F80CCB0B9B2C2000080021308500AA301E
:10096000840000080319C22C0530F800F701F70BCA
:10097000B72CF80BB62C2E30F700F70BBD2CC02C83
:10098000800BB42C080023003508B3003408B200F3
:1009900033082500C800230032082500C700CA011B
:1009A0000730C9002000962479082300B300780896
:1009B000B20022006D082500B9001830BA003A08CC
:1009C000F80139020318E72C3908F700F32CF70176
:1009D0000830BB00B90DF70D3A0877020318F7008D
:1009E000F80DBB0BEA2C2300B1017808B0003208E7
:1009F000B0073308B13D30088E3CB0003108031C0D
:100A0000310F042D0830052D083CB10020000800EE
:100A100021001508C039950020009501B031D02C77
:100A20000130F70024003F083E020319F7012000BF
:100A300008002500E1010130E2000230600262029C
:100A400003182C2D62085E07840000305F3D85008E
:100A50000008E106E20A1D2D6108F80020000800E8
:100A60002500DF015E085F020318542D5F085C0754
:100A7000840000305D3D85000008E0006008E10072
:100A80002130850062308400220884070030853DD3
:100A900061088000A20A22082F3C031CA201210049
:100AA00011162500DF0A322D20000800093025002C
:100AB000DD00C430DC000730F700F70B5D2D602D42
:100AC0005C080319DD03DC03DC08031D6C2D240026
:100AD000C001F801832D250024003F083E02031DBC
:100AE000742D25005B2D2400213085002E308400DC
:100AF0003F0884070030853D0008F800BF0A3F0822
:100B00002F3C031CBF012000080021302500BA0043
:100B10009430B9002C08BB0020001025771C512E02
:100B200025003B08CF002000950124003F083E022D
:100B3000031C9C2DF800A02D3E083F02303CF8001D
:100B400025004F0878020318AF2D200015087D3CC2
:100B50000318AD2DFB30F800B22D952D2500003087
:100B6000F8002000F8080319E02D2500BC01BD01A4
:100B7000BE01BF01C001C101C201C3010830C400F0
:100B8000F530BC00C300FB30C1002130DF00AC30C9
:100B9000DE004408E0002000192578082500C20086
:100BA0002130DD00AC30DC004408DE0020003025C0
:100BB0001025771CDD2D5625D82D0030F800532E3A
:100BC0002500C5013B0845020318FA2D45083907E1
:100BD000840000303A3D8500D2000408D100200096
:100BE00056252500520885005108840078088000A9
:100BF000C50AE22D390884003A0885000031000852
:100C0000F53C031D202E390884003A088500073181
:100C10000008F53C031D202E390884003A088500A1
:100C200006310008CF003A08DF003908DE003B0833
:100C3000E00020001925780825004F0203194C2EEA
:100C4000C601C701C801C901CA01CB01CC01CD0150
:100C50000830CE00F530C600CD00FA30CB00213090
:100C6000DF00B630DE004E08E000200019257808CD
:100C70002500CC002130DD00B630DC004E08DE005F
:100C8000200030251025771C472E5625422E003097
:100C9000F800532E502E25000130F8002000532E6E
:100CA000532E0030F800F808031D5A2E0030F800CB
:100CB0005E2E5E2E25002508F8002000B0311D2D87
:100CC0002300B701250026082300B60025002708C9
:100CD0002200EE002300B901250028082300B800F7
:100CE000BF01250029082300BE002B302500BE00CF
:100CF000230036082500BF0020003F232C302500AC
:100D0000BE0022006E082500BF0020003F232D30CA
:100D10002500BE00230038082500BF0020003F2327
:100D200041302500BE0023003E082500BF00200002
:100D30003F23A0302500AE00AF01B001B101B201E8
:100D40002130DF009D30DE003508E000200019254D
:100D500078082500B30020001025771CB12E5625F9
:100D6000AC2E21302500DD009D30DC003508DE0092
:100D700020003025B0316D2D2500B901BA01BB012D
:100D8000BC01BD01BE01BF01C001C101C201C3015F
:100D9000C401C501C601C701C8011030C900F53042
:100DA000B900A130BA00220038082500BB0022009B
:100DB00039082500BC0022003A082500BD002100AA
:100DC0003A082500BE0021003B082500BF00210095
:100DD00062082500C000210063082500C100210031
:100DE0003C082500C200210066082500C300210040
:100DF00067082500C400210068082500C5002100FF
:100E000069082500C60001304902A93E840021304E
:100E100085000318850AF530800002304902A93E9A
:100E2000F8002130FA000318FA0A7808CA007A0894
:100E3000CB002130DF00A930DE004908E0002000AF
:100E4000192525004B0885004A0884007808800091
:100E5000A130AE004908AF00B001B101B2012130AC
:100E6000DF009D30DE003508E000200019257808FD
:100E70002500B30020001025771C402F56253B2F5E
:100E800021302500DD009D30DC003508DE0020002B
:100E9000302521302500DD00A930DC004908DE00C6
:100EA00020003025B0316D2D2500260F582F5B2FE7
:100EB000711126187115270F5E2F612FF111271858
:100EC000F115280F642F672F711228187116C23080
:100ED000AE00AF01B001B101B2012130DF009D30A1
:100EE000DE003508E0002000192578082500B30051
:100EF00020001025771C7E2F5625792F21302500C4
:100F0000DD009D30DC003508DE0020003025B031EA
:100F10006D2D250027082100B300B2012500260809
:100F20002100B2070030B33DB208031D9E2FB30865
:100F3000031D9E2F25009301B42F21003308F900D3
:100F40003208F800F90CF80CF90CF80CF90C7808D8
:100F500025009100F90C790C3039F7001308CF39CE
:100F6000770493000C309300C330AE00023035029A
:100F70009D3EF8002130FA000318FA0A7808B900FB
:100F80007A08BA002130DF009D30DE003508E0002D
:100F90002000192525003A088500390884007808C2
:100FA000800020001025771CD72F5625D22F213006
:100FB0002500DD009D30DC003508DE0020003025F6
:100FC000B0316D2D2300CF01D001200008000A3080
:100FD0002300CA00C900C800C70020000800B031C3
:100FE000182F2F142300CB01B630CC000830CD00D1
:0C0FF000CE0120000800AC17B031182F13
:10100000283023009100951315141308053C03198B
:1010100060293C302500BD003D30BE00C001BF014D
:1010200080312000042388313E302500BD003F3050
:10103000BE00C001BF018031200004238831503040
:101040002500BD005130BE000930C000C430BF00D3
:10105000803120000423883147302500BD0048300E
:10106000BE002730C0001030BF00803120000423B4
:10107000883149302500BD004A30BE002A30C0000A
:10108000F830BF008031200004238831143025005F
:10109000BD001530BE000630C000A430BF00803156
:1010A00020000423883116302500BD001730BE0013
:1010B0000630C000C230BF008031200004238831D8
:1010C00018302500BD001930BE000630C000EA30DF
:1010D000BF0080312000042388311A302500BD0074
:1010E0001B30BE000730C0001230BF00803120002E
:1010F000042388311C302500BD001D30BE000730A0
:10110000C0002630BF008031200004238831253004
:101110002500BD002730BE00C001BF018031200086
:10112000042388311E302500BE00AA30BF00803164
:1011300020003F2388311F302500BE00AA30BF00A9
:10114000803120003F23883120302500BE00AA30A6
:10115000BF00803120003F23883121302500BE00B0
:10116000AA30BF00803120003F2388312230250083
:10117000BE00AA30BF00803120003F2388312E30CE
:101180002500BD002F30BE000330C000FF30BF007F
:10119000803120000423883124302500BE000F3028
:1011A000BF00803120003F23883126302500BE005B
:1011B000BF01803120003F23883129302500BE0047
:1011C0005530BF00803120003F2388312A30250070
:1011D000BE00EB30BF00803120003F23883130302B
:1011E0002500BE000A30BF00803120003F23883137
:1011F00040302500BE00BF01803120003F238831F0
:101200002B302500BE003930BF00803120003F2345
:1012100088312C302500BE004930BF0080312000CD
:101220003F2388312D302500BE000830BF008031BB
:1012300020003F23883145302500BE000230BF002A
:10124000803120003F23883180315F2B883143304B
:101250002500BE000F30BF00803120003F238831C1
:1012600042302500BE00BF01803120003F2388317D
:1012700041302500BE000A30BF00803120003F23EE
:10128000883144302500BE00BF01803120003F235B
:10129000883146302500BE001430BF008031200068
:1012A0003F2388312A302300910095131514130829
:1012B0002200B9002000E4010A30E300F02B2300F3
:1012C00044309100951315141308C0004530910067
:1012D0009513151413082000BC003A302500B900FE
:1012E0003B30BA0080312000092488317908DA00C7
:1012F0007808D90038302500B9003930BA0080317B
:101300002000092488317908D8007808D7005A08C5
:101310005802031C9129031DBC2957085902031CBC
:10132000BC290310570D2500B9002000580D2500D9
:10133000BA0020005A02031CA729031DBC29590822
:10134000250039020318A6292000BC2920005808CE
:10135000113C0318B229FF3A031DBC2957085C3C15
:10136000031CBC295808013C031CC329031DBC29CC
:101370005708F33C031CC329BC080319C3291430C4
:101380002200C200200036302500B9003730BA00F4
:1013900080312000092488317908DC007808DB00DE
:1013A0005C082500BA0020005B082500B9008031E8
:1013B00020002324883134302500B9003530BA00AC
:1013C00080312000092488317908DE007808DD00AA
:1013D0005E082500BA0020005D082500B9008031B4
:1013E00020002324883132302500B9003330BA0080
:1013F00080312000092488317908E0007808DF0076
:1014000060082500BA0020005F082500B90080317F
:101410002000232488311A302500B9001B30BA007F
:10142000803120000924883179082200B100780831
:10143000B00031080F3C0318242AFF3A031D2E2A5E
:101440003008CC3C031C2E2A3108013C031C302AF6
:10145000031D2E2A30088F3C031C302A1430C20092
:101460001C302500B9001D30BA008031200009244D
:10147000883179082200B3007808B20033082500CB
:10148000BA00220032082500B9008031200055241E
:10149000883118302500B9001930BA008031200099
:1014A0000924883179082200AF007808AE002F089F
:1014B0002500BA0022002E082500B9008031200046
:1014C0005524883116302500B9001730BA00803114
:1014D00020000924883179082200AD007808AC008A
:1014E0002D082500BA0022002C082500B900803103
:1014F00020005524883114302500B9001530BA0079
:10150000803120000924883179082100EF00780813
:10151000EE006F082500BA0021006E082500B90012
:1015200080312000552488311E302300910095130E
:1015300015141308FD001F3091009513151413089E
:10154000FE00203091009513151413082200B400FA
:101550002130230091009513151413082200B500C3
:101560002230230091009513151413082200B600B1
:101570002E302500B9002F30BA0080312000092418
:10158000883179082100B3007808B20024302300A4
:1015900091009513151413082200B700263023007C
:1015A00091009513151413082200ED002530250035
:1015B000B9002730BA008031200009248831790829
:1015C0002300B5007808B400293091009513151454
:1015D00013082200B8002A30230091009513151437
:1015E00013082200B9003030230091009513151420
:1015F00013082200BA002D30230091009513151412
:101600001308B901B8002C30910095131514130874
:101610002200EE002B3023009100951315141308BF
:10162000B701B60037082500C8002300360825009A
:10163000C700CA016430C900803120009624883177
:1016400079082500BA007808B90022006E08250044
:1016500039072300BA00003025003A3D2300BB00C3
:101660003C302500B9003D30BA008031200009240B
:1016700088317908D1007808D0003E302500B900C3
:101680003F30BA0080312000092488317908D30026
:101690007808D20050302500B9005130BA008031AE
:1016A00020000924883179082200DE007808DD0056
:1016B000403023009100951315141308F8007110A1
:1016C0007818711441309100951315141308BF0157
:1016D000BE00433091009513151413082100D50165
:1016E000D4004230230091009513151413082200F2
:1016F000C100230039082500C80023003808250050
:10170000C700CA016430C9008031200096248831A6
:1017100079082500BA007808B90023003E082500A2
:1017200039072300BC003F0825003A3D2300BD00D7
:1017300049302500B9004A30BA0080312000092420
:10174000883179082100AF007808AE0047302500C5
:10175000B9004830BA008031200009248831790866
:101760002100B1007808B000711CEC2B2000BC08EF
:10177000031DBC2B2100EC2B21003108273C031C4E
:10178000CB2B031DC72B30080F3C031CCB2B143075
:101790002200C2002100220031082500C8002200DA
:1017A00030082500C700CA010330C900803120007D
:1017B000962488317908FA00780821002F087A02E7
:1017C000031CEC2B031DE82B78082E020318EC2BCE
:1017D00014302200C20021002000E4016430E30044
:1017E000B0316D2C23005308033A20000319142C48
:1017F000073A03195B2C103A0319B62C013A031966
:10180000162D033A03196E2D013A0319C62D093A14
:1018100003191E2E013A03196F2E3F3A0319C02EE9
:10182000013A0319112F612F04302300D3002F0038
:10183000121E182C23005008F700D01B222C2F005A
:10184000A6122300F71F272C2F00A6162300771BB4
:101850002C2C2F0026132300771F312C2F00261746
:101860002300F71A362C2F00A6132300F71E3B2C5B
:101870002F00A6172300771A402C2F0027112300D2
:10188000771E452C2F0027152300F7194A2C2F000F
:10189000B2102300F71D4F2C2F00B214230077192C
:1018A000542C2F0027132300771D592C2F002717A6
:1018B00023002000612F14302300D3002F00121EBC
:1018C0005F2C23004F08F700CF1B692C2F00B213A9
:1018D0002300F71F6E2C2F00B2172300771B732CE9
:1018E0002F0026102300771F782C2F0026142300AA
:1018F000F71A7D2C2F00A6102300F71E822C2F0034
:10190000A6142300771A872C2F0026112300771E98
:101910008C2C2F0026152300F719912C2F00321341
:101920002300F71D962C2F003217230077199B2CCC
:101930002F00B3102300771DA02C2F00B314230019
:10194000F718A52C2F00A6112300F71CAA2C2F0096
:10195000A61523007718AF2C2F0026122300771C22
:10196000B42C2F00261623002000612F2F1CBE2C24
:101970002F101E302300D3002000612F15302300CC
:10198000D300470880312000332088312500B9007A
:101990002F00121EC92C25003908F700B91BD32CC3
:1019A0002F00AC102500F71FD82C2F00AC142500F9
:1019B000771BDD2C2F0021112500771FE22C2F0033
:1019C00021152500F71AE72C2F00A0122500F71E7D
:1019D000EC2C2F00A0162500771AF12C2F00A01157
:1019E0002500771EF62C2F00A0152500F719FB2CDB
:1019F0002F0020122500F71D002D2F002016250096
:101A00007719052D2F00A0132500771D0A2D2F0013
:101A1000A0172500F7180F2D2F0020132500F71C05
:101A2000142D2F00201725002000612F16302300D1
:101A3000D300480880312000332088312500B900C8
:101A40002F00121E212D25003908F700B91B2B2D60
:101A50002F0021132500F71F302D2F0021172500FF
:101A6000771B352D2F00AD102500771F3A2D2F0045
:101A7000AD142500F71A3F2D2F00A0102500F71EEA
:101A8000442D2F00A0142500771A492D2F00AC13E8
:101A90002500771E4E2D2F00AC172500F719532D6A
:101AA0002F0020102500F71D582D2F002014250091
:101AB00077195D2D2F002C132500771D622D2F0027
:101AC0002C172500F718672D2F0020112500F71C73
:101AD0006C2D2F00201525002000612F17302300CA
:101AE000D300490880312000332088312500B90017
:101AF0002F00121E792D25003908F700B91B832D00
:101B00002F00AF102500F71F882D2F00AF142500E0
:101B1000771B8D2D2F0024112500771F922D2F006C
:101B200024152500F71A972D2F00A3122500F71E64
:101B30009C2D2F00A3162500771AA12D2F00A3118D
:101B40002500771EA62D2F00A3152500F719AB2D14
:101B50002F0023122500F71DB02D2F00231625007E
:101B60007719B52D2F00A3132500771DBA2D2F004F
:101B7000A3172500F718BF2D2F0023132500F71CEE
:101B8000C42D2F00231725002000612F03302300D0
:101B9000D3004A0880312000332088312500B90065
:101BA0002F00121ED12D25003908F700B91BDB2D9F
:101BB0002F0024132500F71FE02D2F0024172500E8
:101BC000771BE52D2F00B0102500771FEA2D2F0081
:101BD000B0142500F71AEF2D2F00A3102500F71ED3
:101BE000F42D2F00A3142500771AF92D2F00AF1321
:101BF0002500771EFE2D2F00AF172500F719032EA5
:101C00002F0023102500F71D082E2F002314250078
:101C100077190D2E2F002F132500771D122E2F0060
:101C20002F172500F718172E2F0023112500F71C5A
:101C30001C2E2F00231525002000612F1F302300AC
:101C4000D3002F00121E222E23004B08F700CB1BBF
:101C50002C2E2F00AC102300F71F312E2F00AC14B8
:101C60002300771B362E2F0021112300771F3B2ED8
:101C70002F0021152300F71A402E2F00A012230059
:101C8000F71E452E2F00A0162300771A4A2E2F008C
:101C9000A0112300771E4F2E2F00A0152300F71947
:101CA000542E2F0020122300F71D592E2F0020162E
:101CB000230077195E2E2F00A0132300771D632EBB
:101CC0002F00A0172300F718682E2F0020132300E1
:101CD000F71C6D2E2F00201723002000612F2030CD
:101CE0002300D3002F00121E732E23004C08F70090
:101CF000CC1B7D2E2F0021132300F71F822E2F00D7
:101D000021172300771B872E2F00AD102300771F8C
:101D10008C2E2F00AD142300F71A912E2F00A01047
:101D20002300F71E962E2F00A0142300771A9B2E57
:101D30002F00AC132300771EA02E2F00AC1723001A
:101D4000F719A52E2F0020102300F71DAA2E2F0013
:101D5000201423007719AF2E2F002C132300771D9A
:101D6000B42E2F002C172300F718B92E2F002011A6
:101D70002300F71CBE2E2F00201523002000612F0A
:101D800021302300D3002F00121EC42E23004D0843
:101D9000F700CD1BCE2E2F00AF102300F71FD32E40
:101DA0002F00AF142300771BD82E2F0024112300FF
:101DB000771FDD2E2F0024152300F71AE22E2F00A7
:101DC000A3122300F71EE72E2F00A3162300771A75
:101DD000EC2E2F00A3112300771EF12E2F00A31548
:101DE0002300F719F62E2F0023122300F71DFB2ED8
:101DF0002F00231623007719002F2F00A313230091
:101E0000771D052F2F00A3172300F7180A2F2F0087
:101E100023132300F71C0F2F2F002317230020006C
:101E2000612F03302300D3002F00121E152F230033
:101E30004E08F700CE1B1F2F2F0024132300F71F7F
:101E4000242F2F0024172300771B292F2F00B010D9
:101E50002300771F2E2F2F00B0142300F71A332FE3
:101E60002F00A3102300F71E382F2F00A3142300E8
:101E7000771A3D2F2F00AF132300771E422F2F001C
:101E8000AF172300F719472F2F0023102300F71D4A
:101E90004C2F2F00231423007719512F2F002F13BD
:101EA0002300771D562F2F002F172300F7185B2FC5
:101EB0002F0023112300F71C602F2F002315230070
:101EC0002000B031D72CD301D201EC01EB01D101BC
:101ED000D001EA01E901BA01C901C801CD01CC0173
:101EE000CB01CA01CF01CE013E302500BD003F30FD
:101EF000BE00200053082500C00020005208250025
:101F0000BF0080312000042388313C302500BD0013
:101F10003D30BE00200051082500C00020005008C0
:101F20002500BF008031200004238831D1302500F6
:101F3000AE00AF01B001B101B2012130DF009D3030
:101F4000DE003508E000803120001925883178084E
:101F50002500B3008031200010258831771CB62F72
:101F60008031562588312500AA2F200021302500F8
:101F7000DD009D30DC003508DE008031200030259A
:101F80008831B0316D2D2500B901B9012C08390215
:101F90000318D42F943039078400213085000318AA
:101FA000850A8001B90AC62FB9013508390203181C
:101FB000E32F9D3039078400213085000318850AFE
:101FC0008001B90AD52FF530AD00B400B031200042
:101FD000742D2F142300CB012A30CC003A30CD00D1
:061FE000CE012000080004
:1020000025002608FC3E03188F28043E2000BB282C
:102010002200B801250027082200B8072930250032
:10202000BE00220038082500BF00803120003F2379
:10203000903125008F282500A80128082200B9002A
:10204000250027082200B9072A302500BE002200FB
:1020500039082500BF00803120003F239031250042
:102060008F282200BA01250027082200BA07303045
:102070002500BE0022003A082500BF008031200064
:102080003F23903125008F280030F8007110781818
:10209000711400307118013025002707F800711005
:1020A00078187114711C802821006708AF00660839
:1020B000AE006908B1006808B00047302500BD00D7
:1020C0004830BE00210031082500C0002100300842
:1020D0002500BF00803120000423903149302500C5
:1020E000BD004A30BE0021002F082500C00021009D
:1020F0002E082500BF0080312000042390312500E8
:10210000003071180130B9004030BE003908BF00FE
:10211000803120003F23903125008F282500A230F8
:10212000AE00AF01B001B101B2012130DF009D303E
:10213000DE003508E0008031200019259031780854
:102140002500B3008031200010259031771CAE2887
:102150008031562590312500A2282000213025000D
:10216000DD009D30DC003508DE00803120003025A8
:102170009031B0316D2D0A108A100A11820708289B
:102180001B283128442822302500DB00F530B90017
:10219000B130BA00220030082500BB00220031080F
:1021A0002500BC0022002E082500BD0022002F08BB
:1021B0002500BE0022002C082500BF0022002D08AB
:1021C0002500C00021006E082500C10021006F0815
:1021D0002500C200220032082500C3002200330877
:1021E0002500C400220035082500C500220034085F
:1021F0002500C6007E08C7007D08C80022003608FA
:102200002500C900200057082500CA0020005808F2
:102210002500CB0020005B082500CC0020005C08D6
:102220002500CD0020005D082500CE0020005E08BE
:102230002500CF0020005F082500D00020006008A6
:102240002500D100200059082500D20020005A089E
:102250002500D30021002E082500D40021002F08DE
:102260002500D500210030082500D60021003108C6
:102270002500D700D8017118D80A01305B02A93EA9
:102280008400213085000318850AF5308000023073
:102290005B02A93EF8002130FA000318FA0A780818
:1022A000DC007A08DD002130DF00A930DE005B08A9
:1022B000E000803120001925903125005D0885005F
:1022C0005C08840078088000B130AE005B08AF0085
:1022D000B001B101B201023035029D3EF80021305B
:1022E000FA000318FA0A7808DC007A08DD002130C9
:1022F000DF009D30DE003508E00080312000192528
:10230000903125005D0885005C0884007808800015
:102310008031200010259031771C9429803156257A
:10232000903125008829200021302500DD009D30D6
:10233000DC003508DE00803120003025903121306E
:102340002500DD00A930DC005B08DE0080312000C4
:1023500030259031B0316D2D25002608F63E03184A
:102360002A2B0A3E2000662B143023002002220074
:10237000B500210067082200B10021006608220094
:10238000B00021302500BE00220035082500BF0026
:10239000803120003F2390311A302500BD001B30D2
:1023A000BE00220031082500C000220030082500B0
:1023B000BF00803120000423903125002A2B20000B
:1023C0001E30230020022200B400210067082200F2
:1023D000AF00210066082200AE0020302500BE00BC
:1023E000220034082500BF00803120003F239031B7
:1023F00018302500BD001930BE0022002F0825002E
:10240000C00022002E082500BF00803120000423D8
:10241000903125002A2B2000283023002002FE00C6
:10242000210067082200AD00210066082200AC00F0
:102430001F302500BE007E08BF00803120003F23F2
:10244000903116302500BD001730BE0022002D0847
:102450002500C00022002C082500BF00803120008C
:102460000423903125002A2B200032302300200243
:10247000FD0021006708EF006608EE001E30250011
:10248000BE007D08BF00803120003F239031143012
:102490002500BD001530BE0021006F082500C000DA
:1024A00021006E082500BF008031200004239031F8
:1024B00025002A2B2000250028082100D500D40162
:1024C000250027082100D4070030D53D54082300FB
:1024D00020022200B600210067082200B30021007C
:1024E00066082200B20043302500BE0021005408D7
:1024F0002500BF00803120003F239031223025008D
:10250000BE00220036082500BF00803120003F2396
:1025100090311C302500BD001D30BE002200330864
:102520002500C000220032082500BF0080312000B5
:102530000423903125002A2B200021006908200067
:10254000D800210068082000D70038302500BD00E1
:102550003930BE00200058082500C0002000570870
:102560002500BF00803120000423903125002A2B54
:102570002000210069082000DC00210068082000FC
:10258000DB0036302500BD003730BE0020005C087F
:102590002500C00020005B082500BF00803120001E
:1025A0000423903125002A2B2000210069082000F7
:1025B000DE00210068082000DD0034302500BD0069
:1025C0003530BE0020005E082500C00020005D08F8
:1025D0002500BF00803120000423903125002A2BE4
:1025E0002000210069082000E00021006808200088
:1025F000DF0032302500BD003330BE00200060080F
:102600002500C00020005F082500BF0080312000A9
:102610000423903125002A2B200021006908200086
:10262000DA00210068082000D9003A302500BD00FA
:102630003B30BE0020005A082500C0002000590889
:102640002500BF00803120000423903125002A2B73
:1026500020002500B230AE00AF01B001B101B201DF
:10266000023035029D3EF8002130FA000318FA0AC4
:102670007808B9007A08BA002130DF009D30DE000A
:102680003508E000803120001925903125003A08F6
:1026900085003908840078088000803120001025EA
:1026A0009031771C592B80315625903125004D2BC8
:1026B000200021302500DD009D30DC003508DE00E3
:1026C0008031200030259031B0316D2D0A148A14EC
:1026D0000A118207B429E0290C2A352A5B2A9D2A8F
:1026E000B92AD52AF12A0D2B20302500D900F53042
:1026F000B900C130BA00230036082500BB00220013
:102700006E082500BC00230038082500BD0023000A
:102710003E082500BE0020002E082500BF00200036
:1027200040082500C000200041082500C10022000B
:1027300028082500C200220029082500C300200027
:1027400050082500C400200051082500C5002000C5
:1027500052082500C600200053082500C7002000AD
:1027600069082500C80020006A082500C90020006B
:102770006B082500CA0020006C082500CB00200053
:102780004E082500CC0020004F082500CD00200079
:102790004A082500CE0020004B082500CF0023006A
:1027A00030082500D000230031082500D100210089
:1027B00032082500D200210033082500D300D401BF
:1027C0007119D40AD501F119D50AD601711AD60AA0
:1027D00001305902A93E8400213085000318850A82
:1027E000F530800002305902A93EF8002130FA008D
:1027F0000318FA0A7808DA007A08DB002130DF00D3
:10280000A930DE005908E000803120001925903100
:1028100025005B0885005A08840078088000C130D4
:10282000AE005908AF00B001B101033035029D3E42
:102830008400213085000318850A800102303502AA
:102840009D3EF8002130FA000318FA0A7808DA00F1
:102850007A08DB002130DF009D30DE003508E00023
:10286000803120001925903125005B0885005A0829
:102870008400780880008031200010259031771C7A
:10288000472C80315625903125003B2C20002130EB
:102890002500DD009D30DC003508DE0080312000A1
:1028A0003025903121302500DD00A930DC005908A9
:1028B000DE008031200030259031B0316D2D2500B3
:1028C000B901BA01BB01BC01BD01BE01BF01C0011C
:1028D000C101C201C301C401C501C601C701C801CC
:1028E000C901CA01CB01CC01CD01CE01CF01D0017C
:1028F000D101D2011A30D300F530B900D230BA007C
:10290000210056082500BB00210057082500BC0007
:10291000210058082500BD00210059082500BE00EF
:1029200022003B082500BF0022003C082500C00013
:10293000210034082500C100210035082500C2000F
:10294000210036082500C300210037082500C400F7
:10295000210044082500C500210045082500C600C7
:1029600021004C082500C70021004D082500C800A3
:10297000210060082500C900210061082500CA0067
:1029800021005E082500CB0021005F082500CC0057
:1029900021005C082500CD0021005D082500CE0047
:1029A000210062082500CF00210063082500D00027
:1029B00001305302A93E8400213085000318850AA6
:1029C000F530800002305302A93ED4002130D500FA
:1029D0000318D50A2130DF00A930DE005308E000DB
:1029E00080312000192590312500550885005408B4
:1029F000840078088000D230AE005308AF00B001E8
:102A0000B101B2012130DF009D30DE003508E00069
:102A1000803120001925903178082500B3008031DD
:102A2000200010259031771C1B2D803156259031C8
:102A300025000F2D200021302500DD009D30DC0019
:102A40003508DE008031200030259031213025000E
:102A5000DD00A930DC005308DE0080312000302585
:102A60009031B0316D2D8318392D02308500D13071
:102A70008400F701F801F901FA012500D101D20122
:102A8000D301D40150084F044E044D040319782D8E
:102A90002030D5000310C90DCA0DCB0DCC0DD10DC2
:102AA000D20DD30DD40D50085402031D612D4F08D3
:102AB0005302031D612D4E085202031D612D4D0866
:102AC0005102031C722D4D08D1024E08031C4E0FFB
:102AD000D2024F08031C4F0FD3025008031C500FA3
:102AE000D4020314F70DF80DF90DFA0DD50B4A2D8C
:102AF000510880005208813F5308823F5408833FA9
:102B00002000080022003908210062072000A400EC
:102B100000302100633D2000A500A601A70121008F
:102B20006308023C0318BB2DFF3A031D9B2D62086E
:102B3000F73C0318BB2D2000BB0A3B08C83C031818
:102B4000B92D0330E400C630E3002200E0011E305E
:102B5000DF00E2011430E1006208E6006108E500F0
:102B60006008E4005F08E300EC016430EB003A2EFB
:102B70002000BD2D21002000BB0183100F30250057
:102B8000CC001230CB001630CA00BF30C900200084
:102B900027082500D000200026082500CF002000AF
:102BA00025082500CE00200024082500CD002000A7
:102BB00033257A08AB007908AA007808A9007708BD
:102BC000A80083102B082500CC0020002A0825002F
:102BD000CB00200029082500CA0020002808250075
:102BE000C900200027082500D00020002608250065
:102BF000CF00200025082500CE0020002408250055
:102C0000CD00200033257A082200D5007908D400B1
:102C10007808D3007708D20021002D082E3C031835
:102C2000202EFF3A031D182E2C08943C0318202E4A
:102C30002200D501D401D301FA30D200252E210083
:102C40002A30AD00F830AC0022005208FF3C2100D1
:102C5000A800FF30A900220053082100A93BEF3053
:102C6000220052072100AA00D8302200533D210043
:102C7000AB00220020000800F801F901F701FA0179
:102C800025004A08031D472E49080319612E1030FC
:102C9000CB000310C70DC80DF70DFA0D4A087A02D4
:102CA000031D542E49087702031C5D2E4908F702C4
:102CB000031CFA034A08FA020314F80DF90DCB0BB2
:102CC000492E20000800250041082000B4002500FE
:102CD00042082000B50025003E084002031C932E48
:102CE000031D762E3F083D020318932E2000B401E9
:102CF000B50A3508250044020318922E3F0803192F
:102D0000C003BF030310440D200035020319912EA8
:102D1000031C912E25003E08C0003D08BF00200086
:102D2000B5032500AE2E2000B40AB50134082500F5
:102D300043020318AE2EBF0A0319C00A0310430D45
:102D4000200034020319AD2E031CAD2E25003E08D1
:102D5000C0003D08BF002000B40325003F08F80074
:102D60004008F9002000080020302500DD00D901CE
:102D7000DA01DB01DC015408FA005308F9005208BB
:102D8000F8005108F7000310771CD42E5508D90716
:102D900056080318560FDA0757080318570FDB07B2
:102DA00058080318580FDC07DC0CDB0CDA0CD90CC4
:102DB000FA0CF90CF80CF70CDD0BC32E2000080000
:102DC000831021006D082500CC0021006C0825002F
:102DD000CB0021006B082500CA0021006A082500ED
:102DE000C9004008D0003F08CF003E08CE003D0893
:102DF000CD00200033257A082200A7007908A6001C
:102E00007808A5007708A400410B0C2FA701A601A4
:102E10005930A500D830A400A708031D1D2FA6080F
:102E2000031D1D2F2508FC3C0318282FFF3A031D06
:102E30001D2F2408E83C0318282FF30AAB01AA0130
:102E4000A901A8012000C701C601F401EE2F22004C
:102E5000F3012000BF08031D3A2F3E08273C031C46
:102E60003A2F2200AB01AA01A901A8012000C70145
:102E7000C601EE2F2200A708031D4C2FA608031D34
:102E80004C2F2508073C0318562FFF3A031D4C2FE3
:102E90002408FC3C0318562FAB01AA01A901A80184
:102EA0002000C701C601F401EE2F2200A708031D70
:102EB000672FA608031D672F2508013C0318D32F91
:102EC000FF3A031D672F2408963C0318D32F831065
:102ED0002500CC01CB01D530CA00F230C900220058
:102EE00027082500D000220026082500CF00220058
:102EF00025082500CE00220024082500CD00200052
:102F000033257A082200CF007908CE007808CD005A
:102F10007708CC004F082500D40022004E08250079
:102F2000D30022004D082500D20022004C082500C5
:102F3000D10022004F082500D80022004E082500AD
:102F4000D70022004D082500D60022004C0825009D
:102F5000D5002000B4267A082200AB007908AA0028
:102F60007808A9007708A80083102B082500CC005A
:102F700022002A082500CB00220029082500CA00CB
:102F8000220028082500C900D001CF010130CE0061
:102F9000F430CD00200033257808C7007708C6003C
:102FA000F401EE2F2200A708031DE02FA608031D41
:102FB000E02FA508031DE02F2408FA3C0318ED2F8D
:102FC000AB01AA012730A9000F30A8002000C701DB
:102FD0001430C600F401EE2F2200F40A200008008D
:1030000025003D0821003C022500C9003E082100A2
:103010003D3B2500CA003F0821003E3B2500CB0078
:10302000400821003F3B2500CC0045084102F70045
:103030004608423BF8004708433BF9004808443B38
:10304000FA00D0007908CF007808CE007708CD00CC
:103050004C08D4004B08D3004A08D2004908D100DC
:103060005008D8004F08D7004E08D6004D08D500AC
:1030700090312000B42698317708250041022300C2
:10308000D60078082500423B2300D70079082500A8
:10309000433B2300D8007A082500443B2300D90095
:1030A0005608F7005708F8005808F9005908FA00C0
:1030B000200008008310220023082500CC002200F5
:1030C00022082500CB00220021082500CA0022008A
:1030D00020082500C900D001CF01CE010A30CD0063
:1030E00090312000332598317A082500C4007908F2
:1030F000C3007808C2007708C10083104408CC00E0
:103100004308CB004208CA004108C9004008D0006B
:103110003F08CF003E08CE003D08CD009031200092
:10312000332598317808BF007708BE002200410897
:10313000023C031DA12801302000BF009030BE00DA
:10314000220020003D080C3C031CAD28C101C00139
:103150000130BF009030BE003B292200A708031DAC
:10316000C728A608031DC7282508043C031CC72838
:10317000031DBE282408AF3C031CC7282000C10142
:10318000C0010130BF009030BE003B29220020006A
:103190003F08003C0318D728FF3A031DD3283E08F8
:1031A000363C0318D728C101C001F4013B29BF08F0
:1031B000031DDE283E08163C0318272914303E075D
:1031C000F80000303F3DFA0078082500C1007A0879
:1031D000C2000330C800E830C7004208CA004108F6
:1031E000C900903120003C2698312200CF01CE0149
:1031F0007908CD007808CC004F082500D4002200C3
:103200004E082500D30022004D082500D2002200E0
:103210004C082500D10022004F082500D8002200CC
:103220004E082500D70022004D082500D6002200B8
:103230004C082500D50090312000B42698311F306D
:103240007707C0000030783DC100F4013B29BF087A
:10325000031D2E293E08023C031834290430C10006
:103260004C30C000F4013B29C101C0010130BF0056
:103270009030BE00F40A08006D08F7006E08FA00EE
:103280007A08031D47290A307702031957297A085B
:10329000031D4E290F3077020319E42903307A0207
:1032A000031D5629ED30770203198D2CA72E90317E
:1032B0008225983173081E3C03186129E401A0306F
:1032C000E30074080A3C03186829E401A530E30010
:1032D000BD0A3D080F3C03186F290F30BD002200C6
:1032E000410B7329762923005017220023004F1029
:1032F00026000D1027000D142000AF12E408031D56
:1033000085296308953C0318E0293A080A3C031D07
:10331000B229BA014D082500C80020004C0825003C
:10332000C700CA010A30C900903120003C269831FC
:103330007908CF007808CE00CD01CC0149082500DE
:10334000C800200048082500C700CA010A30C9008B
:10335000903120003C2698317908CB007808CA00CB
:10336000C901C801220028082000C8072200290836
:103370002000C93D4008CC074108CD3DBA0A51089C
:103380004102031CE029031DC9294008500203180B
:10339000E0294108D1004008D0003C302500BD00A4
:1033A0003D30BE00200051082500C000200050081C
:1033B0002500BF008031200004239831EA01E90193
:1033C000EE010F30ED00A72EAF1E442AAF122100F0
:1033D0005E0860072500B90021005F08613D2500F7
:1033E000BA0003103A0C2100DD002500390C210041
:1033F000DC005C086202031D012A5D0863020319F8
:103400003F2A5D082500BE0021005C082500BD00A4
:10341000210063082500C000210062082500BF00CC
:10342000220056082500C100220057082500C200CE
:10343000C3010530C400903120006326983179081B
:103440002100E5007808E400200034082200D600BE
:10345000200035082200D700210064086202031D05
:10346000352A6508630203193E2A6508E3006408EB
:10347000E20090312000822598312100432A220069
:10348000D601D70121002000210020081B3C031D8C
:103490004E2A210B4E2A2000B01421002108003CA6
:1034A00003188B2CFF3A031D592A20082C3C0318C3
:1034B0008B2C2000E408031D612A6308953C031847
:1034C000122C2500D4010B30D3009030D200F03004
:1034D000D100D801D701210059082500D6002100CC
:1034E00058082500D50090312000B42698317A087C
:1034F0002500BC007908BB007808BA007708B9003D
:1035000021005808FF3CF7000330FA005908FA3B45
:1035100077082500BD007A08BE0083103C08CC0067
:103520003B08CB003A08CA003908C900D001CF01D6
:103530003E08CE003D08CD00903120003325983163
:103540007A082100ED007908EC007808EB00770894
:10355000EA006D08023C0318C62AFF3A031DC22A7E
:103560006C08E63C0318C62AFF3A031DC22A6B0802
:10357000FB3C0318C62AFF3A031DC22A6A08183CFE
:103580000318C62AFF30E700E600E52A83106D081D
:103590002500CC0021006C082500CB0021006B0821
:1035A0002500CA0021006A082500C900D001CF010A
:1035B0000330CE00E830CD00903120003325983123
:1035C00078082100E7007708E600BF08031DF22A0B
:1035D000BE08031DF22ABD08031DF22A3C08313C37
:1035E0000318032B2500C001BF0121006F0825002F
:1035F000BE0021006E082500BD0090312000E026AD
:103600009831122C2100BF08031D102BBE08031D8A
:10361000102BBD08031D102B3C08273C0318432B1F
:103620002500C001BF01BE012830BD00C401C30197
:1036300022002D082500C20022002C082500C10010
:10364000C801C70121006F082500C60021006E08CF
:103650002500C500200000207A082500BC0079085C
:10366000BB007808BA007708B9003C08C0003B08E6
:10367000BF003A08BE003908BD0090312000E026A6
:103680009831122C2100BF08031D502BBE08031DCA
:10369000502BBD08031D502B3C081D3C0318832BE9
:1036A0002500C001BF01BE011E30BD00C401C30121
:1036B00022002F082500C20022002E082500C1008C
:1036C000C801C70122002D082500C60022002C08D1
:1036D0002500C500200000207A082500BC007908DC
:1036E000BB007808BA007708B9003C08C0003B0866
:1036F000BF003A08BE003908BD0090312000E02626
:103700009831122C2100BF08031D902BBE08031D09
:10371000902BBD08031D902B3C08133C0318C32BB2
:103720002500C001BF01BE011430BD00C401C301AA
:10373000220031082500C200220030082500C10007
:10374000C801C70122002F082500C60022002E084C
:103750002500C500200000207A082500BC0079085B
:10376000BB007808BA007708B9003C08C0003B08E5
:10377000BF003A08BE003908BD0090312000E026A5
:103780009831122C2100220033082500C8002200A5
:1037900032082500C700CA010B30C9008031200063
:1037A0009624983179082500BA007808B9003A08BB
:1037B000C8003908C700CA010A30C900903120008A
:1037C0003C26983179082500BA007808B900C00174
:1037D000BF01BE01BD01C401C3013A08C2003908DE
:1037E000C100C801C701220031082500C60022001F
:1037F00030082500C500200000207A082500BC0004
:103800007908BB007808BA007708B9003C08C00006
:103810003B08BF003A08BE003908BD0090312000C7
:10382000E026983126000D1420003015B01022003B
:10383000AB08031D2E2CAA08031D2E2C20005308B4
:1038400022002902031C602C031D2E2C28082000B6
:103850005202031C2D2C2200602C2200AB08031DF9
:103860003F2CAA08031D3F2C2908263C0318452C91
:10387000FF3A031D3F2C28080F3C0318452C273026
:103880002000D3000F30D200220029082000D300EE
:10389000220028082000D2003E302500BD003F3025
:1038A000BE00200053082500C0002000520825005B
:1038B000BF008031200004239831EC01EB0122008D
:1038C0004108023C031D6D2C2100A101A001200034
:1038D000EE010A30ED00A72E22002000E408031DAF
:1038E000752C63081E3C0318872CFF302100A900AB
:1038F000D730A800D930AB001730AA0023005013EE
:103900004F1403302000EE00ED30ED008A2CEE0164
:103910000A30ED0021002000A72E21002008033CE2
:10392000031D992C2108053C031D992C20003014FF
:1039300021002108043C0318A62EFF3A031DA42CE5
:103940002008143C0318A62E2000E408031DAC2C0C
:103950006308953C03189D2E22003C08023C031886
:10396000BC2CFF3A031DB82C3B08FE3C0318BC2CB2
:103970000330BC00FE30BB002500D4010F30D30063
:103980004230D2004030D100D801D70122003C089B
:103990002500D60022003B082500D50090312000EC
:1039A000B42698317A082500BC007908BB00780855
:1039B000BA007708B90022003B08FF3CF70003304B
:1039C000FA003C08FA3B77082500BD007A08BE00E3
:1039D00083103C08CC003B08CB003A08CA003908E9
:1039E000C900D001CF013E08CE003D08CD00903186
:1039F0002000332598317A082200A3007908A2001C
:103A00007808A1007708A0002308023C0318252DA0
:103A1000FF3A031D1D2D2208E63C0318252DFF3A11
:103A2000031D1D2D2108F73C0318252DFF3A031D0A
:103A30001D2D2008303C0318252D0330A300E7304E
:103A4000A200F830A1003030A00083102308250028
:103A5000CC00220022082500CB00220021082500EE
:103A6000CA00220020082500C900D001CF01033080
:103A7000CE00E830CD009031200033259831780811
:103A80002100E9007708E800BF08031D512DBE089A
:103A9000031D512DBD08031D512D3C08313C031859
:103AA000602D2500C001BF01200060082500BE0078
:103AB00020005F082500BD0020005A20672E21004D
:103AC000BF08031D6D2DBE08031D6D2DBD08031D10
:103AD0006D2D3C08273C03189E2D2500C001BF0119
:103AE000BE012830BD00C401C30120005E082500CE
:103AF000C20020005D082500C100C801C7012000E8
:103B000060082500C60020005F082500C5002000D1
:103B100000207A082500BC007908BB007808BA00AC
:103B20007708B9003C08C0003B08BF003A08BE0057
:103B30003908BD0020005A20672E2100BF08031D50
:103B4000AB2DBE08031DAB2DBD08031DAB2D3C08DE
:103B50001D3C0318DC2D2500C001BF01BE011E3035
:103B6000BD00C401C30120005C082500C200200084
:103B70005B082500C100C801C70120005E082500C0
:103B8000C60020005D082500C500200000207A083E
:103B90002500BC007908BB007808BA007708B90096
:103BA0003C08C0003B08BF003A08BE003908BD0011
:103BB00020005A20672E2100BF08031DE92DBE08F2
:103BC000031DE92DBD08031DE92D3C08133C031816
:103BD0001A2E2500C001BF01BE011430BD00C40172
:103BE000C301200058082500C20020005708250006
:103BF000C100C801C70120005C082500C6002000E4
:103C00005B082500C500200000207A082500BC00C4
:103C10007908BB007808BA007708B9003C08C000F2
:103C20003B08BF003A08BE003908BD0020005A20FA
:103C3000672E2100200058082500C80020005708E2
:103C40002500C700CA010B30C9008031200096242E
:103C5000983179082500BA007808B9002000580882
:103C60002500C800200057082500C700CA010A30F7
:103C7000C900803120009624983179082500BC00C5
:103C80007808BB00C001BF01BE01BD01C401C30172
:103C90003A08C2003908C100C801C7013C08C60083
:103CA0003B08C500200000207A082500BC007908E8
:103CB000BB007808BA007708B9003C08C0003B0890
:103CC000BF003A08BE003908BD0020005A20400855
:103CD0004202031D6F2E4108430203199A2E410828
:103CE0002500BE00200040082500BD00200043083C
:103CF0002500C000200042082500BF002000320837
:103D00002500C100200033082500C2000230C30096
:103D1000C40090312000632698317908C5007808E6
:103D2000C4003408B2003508B3004508C300440895
:103D3000C2009C2EB201B301B0152100A101A00167
:103D400020003010EE010A30ED0021002000B031DB
:103D5000792D25003E082300D20025003D082300D0
:103D6000D10025003E08C8003D08C7000330CA0046
:103D7000E830C900903120003C26983179082500B0
:103D8000C6007808C5004608C8004508C7000330CB
:103D9000CA00E830C90080312000962498317808A4
:103DA0002500BD027908BE3B3E08C8003D08C7009B
:103DB000CA016430C900903120003C26983179084E
:103DC0002500C4007808C3004408C8004308C700A1
:103DD000CA016430C90080312000962498317808E7
:103DE0002500BD027908BE3B3E08C8003D08C7005B
:103DF000CA010A30C900903120003C269831790868
:103E00002500C2007808C1004208C8004108C70068
:103E1000CA010A30C9008031200096249831780800
:103E20002500BD027908BE3B3E08C0003D08BF002A
:103E30002000B108031D392F2500C508031D382FA8
:103E4000C608031D382FC6010A30C500C308031D6C
:103E5000382FC408031D382FC4010A30C300C1081D
:103E6000031D382FC208031D382FC2010A30C100BC
:103E70002000250045082300C70025004308230033
:103E8000C800250041082300C90025003F08230081
:103E9000CA002000080021000D1122000D1521008C
:103EA0008D1022008D1421008E1122008E1521000C
:103EB0000E1222000E1622302500BE00B830BD00C2
:103EC0002000A926FF302300CF00D0001E3025009F
:103ED00091000C30930020002C1E772F013022001F
:103EE000E0002C30DF002000E4011430E300B031AA
:103EF000182F8031E227983121000D1122000D1179
:103F000021008D1022008D1021008E1122008E11B3
:103F100021000E1222000E122100B301B201250071
:103F200093012200E0010530DF00E201E1006208B8
:103F3000E6006108E5006008E4005F08E300EC01CA
:103F40000F30EB002300AF01AE012100D301D201FD
:103F50002000E4011E30E300B031182F2E30250080
:103F6000B9002F30BA008031200009249831790837
:103F70002100B3007808B2003308F9003208F800D5
:103F8000F90CF80CF90CF80CF90C780825009100E4
:103F9000F90C790C3039F7001308CF397704930006
:103FA00080312000E72798318031E22798312300C3
:103FB000CF01D0011B30C2005830C1002000E40105
:103FC0006930E3002200E0011E30DF00E201193019
:103FD000E1006208E6006108E5006008E4005F08AF
:0E3FE000E300EC010330EB00B0312000182F9D
:1040000021008C1420008C183A282100D20A0319B0
:10401000D30A0A302500B90021308500A930840078
:104020000008031921280530F800F701F70B1628BE
:10403000F80B15282E30F700F70B1C281F28800BD3
:10404000132821005208963C031D2D28D308031D78
:104050002D282300501577282100D308031D34286C
:104060005208FA3C031837280130D300D20123004C
:104070007728200021005308003C03184928FF3A04
:10408000031D46285208C23C0318492823007728FC
:104090002100D308031D50285208963C03187428A9
:1040A0002300AE0A0319AF0A2100D301D201230075
:1040B0005011AF08031D60282E08033C0318722816
:1040C00028302500BE000530BF00803120003F238E
:1040D000A0312200E8010230E700EA016430E90083
:1040E0000100230077282100D301D2012300B03141
:1040F0002000182FAF3021003607A4000030373DD4
:10410000A500A601A701220038082100A402003062
:10411000A53BA63BA73B27082500D4002100260885
:104120002500D300210025082500D2002100240805
:104130002500D100D801D7011530D6009930D5001F
:1041400090312000B426A0317A082100A700790818
:10415000A6007808A5007708A4008310270825008A
:10416000CC00210026082500CB00210025082500D1
:10417000CA00210024082500C900D001CF01033066
:10418000CE00E830CD00903120003325A0317808F2
:104190002100BB007708BA000E302500BA00743049
:1041A000B9000B30BC005430BB003A0821003B0280
:1041B000031CE728031DE2282500390821003A02E4
:1041C000031CE72864302000D6005E2921003B084C
:1041D00025003C02031CF928031DF42821003A089D
:1041E00025003B02031CF92801302000D6005E297F
:1041F000250021003B0825003A02031C5F29031D0E
:104200000929390821003A02031C082925005F29E1
:1042100025003C0821003B020318102925005F29D6
:10422000031D18293A0825003B0203185F292100C5
:1042300025003B083902BD003C083A3BBE00BF01E7
:10424000C0013B0821003A022500C1003C082100C2
:104250003B3B2500C200C301C4014408D40043080D
:10426000D3004208D2004108D100D801D701D601BD
:104270006430D50090312000B426A0317A082500A2
:10428000C8007908C7007808C6007708C500831001
:104290004808CC004708CB004608CA004508C900BA
:1042A0004008D0003F08CF003E08CE003D08CD00BA
:1042B000903120003325A0317708D600250020005A
:1042C00008002F14230045083C3C0318432BC5016C
:1042D00046081A3C031CC6014608E53E03183F2B5E
:1042E0001B3E2000452B250039082300CB0025006C
:1042F0003A082300CC0025003B082300CD00250010
:104300003C082300CE003F2B25003A082300CB00B9
:1043100025003B082300CC0025003C082300CD00ED
:1043200025003D082300CE003F2B25003B0823003D
:10433000CB0025003C082300CC0025003D082300CD
:10434000CD0025003E082300CE003F2B25003C0871
:104350002300CB0025003D082300CC0025003E08AB
:104360002300CD0025003F082300CE003F2B250071
:104370003D082300CB0025003E082300CC0025008B
:104380003F082300CD00250040082300CE003F2B2E
:1043900025003E082300CB0025003F082300CC0069
:1043A000250040082300CD00250041082300CE0051
:1043B0003F2B25003F082300CB00250040082300A9
:1043C000CC00250041082300CD0025004208230031
:1043D000CE003F2B250040082300CB0025004108DC
:1043E0002300CC00250042082300CD00250043080F
:1043F0002300CE003F2B250041082300CB002500E1
:1044000042082300CC00250043082300CD002500EE
:1044100044082300CE003F2B250042082300CB0098
:10442000250043082300CC00250044082300CD00CC
:10443000250045082300CE003F2B2500430823001C
:10444000CB00250044082300CC00250045082300AC
:10445000CD00250046082300CE003F2B2500440850
:104460002300CB00250045082300CC00250046088A
:104470002300CD00250047082300CE003F2B250058
:1044800045082300CB00250046082300CC0025006A
:1044900047082300CD00250048082300CE003F2B0D
:1044A000250046082300CB00250047082300CC0048
:1044B000250048082300CD00250049082300CE0030
:1044C0003F2B250047082300CB0025004808230088
:1044D000CC00250049082300CD0025004A08230010
:1044E000CE003F2B250048082300CB0025004908BB
:1044F0002300CC0025004A082300CD0025004B08EE
:104500002300CE003F2B250049082300CB002500C7
:104510004A082300CC0025004B082300CD002500CD
:104520004C082300CE003F2B25004A082300CB0077
:1045300025004B082300CC0025004C082300CD00AB
:1045400025004D082300CE003F2B25004B082300FB
:10455000CB0025004C082300CC0025004D0823008B
:10456000CD0025004E082300CE003F2B25004C082F
:104570002300CB0025004D082300CC0025004E0869
:104580002300CD0025004F082300CE003F2B25003F
:104590004D082300CB0025004E082300CC00250049
:1045A0004F082300CD00250050082300CE003F2BEC
:1045B00025004E082300CB0025004F082300CC0027
:1045C000250050082300CD00250051082300CE000F
:1045D0003F2B25004F082300CB0025005008230067
:1045E000CC00250051082300CD00250052082300EF
:1045F000CE003F2B250050082300CB00250051089A
:104600002300CC00250052082300CD0025005308CC
:104610002300CE003F2B250051082300CB002500AE
:1046200052082300CC00250053082300CD002500AC
:1046300054082300CE003F2B250052082300CB0056
:10464000250053082300CC00250054082300CD008A
:10465000250055082300CE003F2B250053082300DA
:10466000CB00250054082300CC002500550823006A
:10467000CD00250056082300CE003F2B2300C60A9C
:104680004E0B432BC601200008000A148A140A119D
:104690008207732984299529A629B729C829D929E8
:1046A000EA29FB290C2A1D2A2E2A3F2A502A612A90
:1046B000722A832A942AA52AB62AC72AD82AE92A3E
:1046C000FA2A0B2B1C2B2D2B21008C1420008C186C
:1046D000822B04302500B9000230BA00BB0106303D
:1046E000BC0039082300C70025003A082300C80091
:1046F00025003B082300C90025003C082300CA0010
:10470000E12B20002300400BB52B42080C3C031882
:10471000B52BFF3A031D902B4108AC3C0318B52B79
:104720002000EE010F30ED002100A101B730A00004
:1047300020007A202500BE01200056082500BD007B
:1047400098312000A926A031230042080D3C03180F
:10475000B22BFF3A031DB02B4108D83C0318B22BF3
:10476000CF16B32BCF125013E12B2500B901BA019C
:10477000BB016030BC00EC30BD006030BE009C303E
:10478000BF006030C000EE30C100EC30C2007A30B3
:10479000C300FC30C400C501C6010130C700C80118
:1047A000C901CA00CB00CC00CD00CE00CF00D000A4
:1047B000D100D200D300D400D500D6002000612162
:1047C000230021000E1620000E1AF92B21008E1551
:1047D00020008E19F92B8031E727A0318031E227A4
:1047E000A0312300C60101302000E400D130E300F5
:1047F000562C2300C108031D432CC208031D432C63
:1048000020005508F9005408F800F90CF80CF90CD0
:10481000F80CF90C780826009800F90C790C30395E
:10482000F7001A08CF3977049A002200E001DF016F
:10483000E201E1016208E6006108E5006008E400C9
:104840005F08E3002000E4019630E300C101C001ED
:104850002200AB01AA01A901A8010330BC00E83085
:10486000BB002300CF1221003F08C3003E08C20056
:104870003D08C1003C08C0000330D900E830D80032
:104880002000562C2300D01D4E2CFF30260098000F
:104890001A08CF3930389A00542C2300963026005D
:1048A00098001A08CF399A0020002C12B031182F26
:1048B0002500B901BA01EE30BB000830BC000A3057
:1048C000BD009E30BE00BF01CF30C0003830C100F7
:1048D0000A30C2003A30C300C401C5010130C6002D
:1048E000C700C801C901CA00CB00CC00CD00CE0072
:1048F000CF00D000D100D200D300D400D500D60024
:1049000020006121080021000D1222000D1220005C
:10491000AE01AC1EAE2C2300C6012200E0011E3009
:10492000DF00E2011430E1006208E6006108E50002
:104930006008E4005F08E300EC010230EB002000B7
:10494000E801E7018031E727A0318031E227A0317B
:10495000AC122C120130E4005E30E3002C1ECE2C91
:104960000130B1002300501FC22C3B082500BE00BF
:1049700023003A082500BD0098312000A926A03167
:10498000CD2C23003D082500BE0023003C08250057
:10499000BD0098312000A926A031D02CB1015824A7
:1049A00022004108023C0319F32CAB08031DE52C3F
:1049B000AA08031DE52C5E082902031CF32C031D25
:1049C000E52C28085D020318F32C01302000E400D8
:1049D0005930E30021000D1222000D160130200095
:1049E000AE00072D2200410BF62C082D2000C30835
:1049F000031DFE2C42081E3C0318072DE4019E30C7
:104A0000E3002300C4010130C300CF1720002200BF
:104A1000B0312000182F2200E0011E30DF00E2013B
:104A20001430E1006208E6006108E5006008E40077
:104A30005F08E300EC010230EB002000E801E70131
:104A40008031E727A0318031E227A031AC122C124F
:104A50000800EB30AD00AC1E322D0B250130E40018
:104A60005E30E3005824B01D8E2DB0112300C30A20
:104A70000319C40A2000C308031D422D4208553CF7
:104A80000318642D2300CF134F16C408031D4C2DAB
:104A900043082B3C0318512D2000E401BE30E300F5
:104AA000230020004308003C0318632DFF3A031D38
:104AB0005D2D42084D3C0318632DE401BE30E30038
:104AC00023004F1220008E2DC208031D732DC30832
:104AD000031D732DE4019630E3002300C40101306F
:104AE000C30020008E2D2300CF174408003C03187C
:104AF0008C2DFF3A031D802D4308423C03188C2D5A
:104B0000CF132000E401BE30E3002300C4010130D4
:104B1000C30020008E2D2300CF172000B031182FA6
:104B200025003C08F43C031D9C2D3D0B9C2D2200D0
:104B3000EC010A30EB0025007C0839020319C22D74
:104B40003908FC003B082200E00025003A0822005A
:104B5000DF0025003B082200E20025003A08220081
:104B6000E1006208E6006108E5006008E4005F0813
:104B7000E30025003D082200EC0025003C0822004F
:104B8000EB0025002000080005302500B900BB011E
:104B90000A30BA000130BD00F430BC00200090257E
:104BA00026008C1027008C142500B901BA010A30A8
:104BB000BB009E30BC00B630BD000830BE00B63031
:104BC000BF00C0017A30C1009E30C200C301B630C0
:104BD000C4009E30C5002A30C600B630C7003A3047
:104BE000C8000A30C900CA01EE30CB001C30CC002E
:104BF000E030CD008030CE00EE30CF00D001D101CA
:104C00000130D200D301D400D500D60020006121AC
:104C1000B031182F09302500B900BB010A30BA00A5
:104C20000130BD00F430BC0020009025AC172600F8
:104C30008C1027008C142500B901BA010A30BB0082
:104C40009E30BC00B630BD000830BE00B630BF009C
:104C5000E030C0008030C1009E30C200C3017A3015
:104C6000C4009E30C500C601B630C7009E30C800E3
:104C70002A30C900B630CA003A30CB000A30CC0026
:104C8000CD019C30CE003A30CF000A30D000E03069
:104C9000D1008030D2003A30D300D401D5010130A8
:104CA000D60020006121B031182F21000D12220002
:104CB0000D1601302000AE00AC1E632E0B25013016
:104CC000E4005E30E300C830AD00C308031D6C2E65
:104CD00042081E3C03188A2E41082500BE00200011
:104CE00040082500BD0098312000A926A0310130E0
:104CF0002500B900BB010A30BA000130BD00F43014
:104D0000BC0020009025230050134F17CF114F14E3
:104D10009B2E200003302500B900BB01BA01BD0164
:104D2000BC012000902523004F112000E4019630A3
:104D3000E300BD012300B0312000182FAC1EA52ECA
:104D40000B250130E4005E30E3002200AB08031DB8
:104D5000B62EAA08031DB62E5E082902031CFD2EDE
:104D6000031DB62E28085D020318FD2E2000E8085A
:104D7000031DE02E67087C3C031CE02E220029085E
:104D80002500BA00220028082500B9003A08BE0014
:104D90003908BD0098312000A926A0310130250036
:104DA000B900BB010A30BA00BD011930BC002000B7
:104DB0009025230050174F17CF114F10FB2E2000C6
:104DC00047082500BE00200046082500BD00983198
:104DD0002000A926A03102302500B900BB012830EF
:104DE000BA00BD011930BC002000902523005017E7
:104DF0004F13CF154F100A2F220003302500B900A2
:104E0000BB01BA01BD01BC0120009025E401963030
:104E1000E3002300B0312000182F2500B901BA01AA
:104E2000BB016030BC001C30BD003830BE002A30F1
:104E3000BF00C0000830C1002A30C200EE30C300FD
:104E40001A30C4000830C5003A30C6002A30C70006
:104E5000C801C9010130CA00CB00CC00CD00CE0092
:104E6000CF00D000D100D200D300D400D500D600AE
:104E700020006121AC1E552F2E302500BD002F30A3
:104E8000BE00210033082500C000210032082500A3
:104E9000BF00803120000423A031A8310020A031C0
:104EA0000130E4006330E300802F2C1E802FA831F6
:104EB0000020A03155302100B2070130B33DB208C7
:104EC000031D692FB308031D692F250093017F2F50
:104ED00021003308F9003208F800F90CF80CF90C3D
:104EE000F80CF90C780825009100F90C790C303990
:104EF000F7001308CF39770493000C30930020009B
:104F0000B031182F2C1E8F2FA8310020A031250082
:104F10003A082000E400250039082000E300AC1E18
:104F20009C2FA8310020A03125003C082000E4007F
:104F300025003B082000E30008002500B901BA0164
:104F4000BB012A30BC00BD009E30BE007A30BF00DD
:104F50000830C0001A30C1000830C2003A30C30027
:104F60002A30C400C501C6010130C700C801C9010B
:104F7000CA00CB00CC00CD00CE00CF00D000D100C5
:104F8000D200D300D400D500D6002000612101302A
:104F90002500BA006430B9000130BC006830BB00A5
:104FA00020008227B031182F03302500BA00BD3011
:104FB000B9000130BC006A30BB002000822723000A
:104FC0004F13D0174F1CF22F20006A082500BA009B
:104FD000200069082500B900A83120005623A0311F
:104FE000FE2F230020006C082500BA0020006B086B
:104FF0002500B900A83120005623A031B031182F68
:105000002C1F6C292C1350302500BD005130BE00E0
:1050100022005E082500C00022005D082500BF00B8
:10502000803120000423A83121302500BE00220059
:1050300035082500BF00803120003F23A8313830DB
:105040002500BD003930BE00200058082500C000F2
:10505000200057082500BF00803120000423A8311C
:1050600014302500BD001530BE0021006F0825005A
:10507000C00021006E082500BF00803120000423FD
:10508000A83116302500BD001730BE0022002D08C3
:105090002500C00022002C082500BF008031200020
:1050A0000423A83118302500BD001930BE002200AD
:1050B0002F082500C00022002E082500BF008031E7
:1050C00020000423A8311A302500BD001B30BE008B
:1050D000220031082500C000220030082500BF0052
:1050E000803120000423A8311C302500BD001D3074
:1050F000BE00220033082500C0002200320825002F
:10510000BF00803120000423A83132302500BD00CB
:105110003330BE00200060082500C00020005F087A
:105120002500BF00803120000423A8313430250041
:10513000BD003530BE0020005E082500C000200004
:105140005D082500BF00803120000423A8313630DF
:105150002500BD003730BE0020005C082500C000DF
:1051600020005B082500BF00803120000423A83107
:105170003A302500BD003B30BE0020005A08250013
:10518000C000200059082500BF0080312000042302
:10519000A83147302500BD004830BE00210031084D
:1051A0002500C000210030082500BF00803120000C
:1051B0000423A83149302500BD004A30BE0021003B
:1051C0002F082500C00021002E082500BF008031D7
:1051D00020000423A83129302500BE002200380811
:1051E0002500BF00803120003F23A8312A30250050
:1051F000BE00220039082500BF00803120003F2377
:10520000A83130302500BE0022003A082500BF003A
:10521000803120003F23A8312B302500BE00230021
:1052200036082500BF00803120003F23A8312C30F4
:105230002500BE0022006E082500BF00803120003E
:105240003F23A8312D302500BE002300380825005B
:10525000BF00803120003F23A83126302500BE004A
:1052600022006D082500BF00803120003F23A831B7
:1052700025302500BD002730BE002300350825005D
:10528000C000230034082500BF0080312000042323
:10529000A83122302500BE00220036082500BF00BC
:1052A000803120003F23A8310030711801302500E3
:1052B000BD004030BE003D08BF00803120003F23CC
:1052C000A83141302500BE0023003E082500BF0064
:1052D000803120003F23A831FA30AD008031E7272C
:1052E000A8318031E227A831AC122300AB01AA011A
:1052F000A901A80120002C122300C6012200E00110
:105300001E30DF00E2011430E1006208E6006108AF
:10531000E5006008E4005F08E300EC010130EB0009
:105320002000080005302500BA007830B9000130AF
:10533000BC006830BB00A03120008227A8312300C8
:105340004F1CB029200041082500BE002000400865
:105350002500BD0098312000A926A831C0292300CE
:10536000220029082500BA00220028082500B900DB
:105370003A08BE003908BD0098312000A926A8319E
:10538000B031182F2500B901BA01BB01CF30BC00E4
:105390000A30BD003A30BE002A30BF00C0009E3047
:1053A000C1007A30C2000830C3003A30C400C501E1
:1053B000C6010130C7000830C8001C30C9000830E1
:1053C000CA007A30CB00EE30CC007A30CD00CE016E
:1053D000CF01D0010130D100D200D300D400D500DC
:1053E000D600A03120006121A83103302500BA0089
:1053F000BC30B9000130BC006930BB00A0312000D6
:105400008227A831B031182F2500B901BA01BB019C
:10541000CE30BC006030BD009C30BE00FC30BF0010
:10542000C001EE30C1001C30C200E030C30080304B
:10543000C400FC30C500C601C701CE30C8006030D2
:10544000C9009C30CA00FC30CB00CC01EE30CD004E
:105450001C30CE00E030CF008030D000FC30D100D6
:10546000D201D301D401D501D601A03120006121A0
:10547000A83103302500BA00BD30B9000130BC00AE
:105480006A30BB00A03120008227A831B031182F2C
:105490002500B901BA01BB013E30BC003A30BD0065
:1054A0000A30BE00BF00EE30C000C1017A30C20039
:1054B000EE30C300E030C4008030C5003A30C60092
:1054C000B630C700C801C9010130CA007A30CB002C
:1054D000EE30CC007A30CD00CE01CF01D0010130CA
:1054E000D100D200D300D400D500D600A0312000D6
:1054F0006121A83123004F13D01303302500BA00D7
:10550000BE30B9000130BC006D30BB00A0312000BE
:105510008227A831B031182F2500B901BA01BB018B
:10552000CF30BC000A30BD003830BE009E30BF0016
:105530003E30C000EE30C100C2017A30C3009E3060
:10554000C400C501EE30C6001C30C700EE30C800F4
:105550000A30C9002A30CA00CB00EE30CC00CD01A1
:10556000CE01CF010130D000D100D200D300D40051
:10557000D500D600A03120006121A83103302500DC
:10558000BA00C030B9000330BC00CA30BB00A03143
:1055900020008227A831B031182F05302500BA002D
:1055A0007830B9000130BC006D30BB00A031200064
:1055B0008227A8312500B901BA01BB013E30BC00E9
:1055C0003A30BD000A30BE00BF00EE30C0007A3075
:1055D000C1003A30C200C301C4010130C5003A30F5
:1055E000C600B630C700C801C9010130CA007A3010
:1055F000CB00EE30CC007A30CD00CE01CF01D0010F
:105600000130D100D200D300D400D500D600A031A3
:1056100020006121A831B031182F2500B901BA014D
:10562000BB01B630BC009E30BD00E030BE00803013
:10563000BF009E30C0003A30C100C201BE30C3007E
:105640009E30C4002A30C5009E30C6000A30C70014
:10565000EE30C8001C30C900CA01CB010130CC00BB
:10566000CD019E30CE003230CF001230D000CF308E
:10567000D1001C30D2003A30D300B630D40008300C
:10568000D5000130D600A03120006121A8310530BD
:105690002500BA007830B9000530BC007830BB0076
:1056A000A03120008227A831B031182F25003A08F8
:1056B000263C03187F2BFF3A031D622B39080F3C51
:1056C00003187F2B2300CF1725003A08C80039089C
:1056D000C700CA010A30C900903120003C26A83119
:1056E00079082500BC007808BB003C08BE003B08D8
:1056F000BD0098312000A926A8318A2B250023005F
:10570000CF1325003A08BE003908BD0098312000AB
:10571000A926A83125003908F8003A08F900200028
:1057200008002500B901BA019C30BB00EE30BC0076
:105730001C30BD006030BE003E30BF000A30C000EB
:10574000EE30C1000A30C200C301C4019C30C50064
:10575000EE30C6001C30C7006030C8003E30C900C3
:105760000A30CA00EE30CB000A30CC00CD01CE01A9
:105770009C30CF00EE30D0001C30D1006030D20021
:105780003E30D3000A30D400EE30D5000A30D600C7
:10579000A03120006121A8312200E001C830DF00E3
:1057A0000330E200E830E100EC010230EB00B03100
:1057B0002000182F05302500BA007830B9000130DC
:1057C000BC006930BB00A03120008227A831230033
:1057D0004F1CF82B20004F082500BE0020004E086B
:1057E0002500BD0098312000A926A831042C2300F3
:1057F00020004B082500BE0020004A082500BD00FF
:1058000098312000A926A831B031182F0230250088
:10581000BA006C30B9000130BC006A30BB00A03166
:1058200020008227A83123004F17D0134F1C262CAD
:10583000200051082500BE00200050082500BD00B2
:1058400098312000A926A831322C230020005308CB
:105850002500BE00200052082500BD009831200020
:10586000A926A831B031182FAC1E632C0020D1011D
:10587000D001BA01EA01E901EC01EB01CF01CE014F
:10588000CD01CC01CB01CA01C901C801D301D201AC
:105890003E302500BD003F30BE00C001BF01803159
:1058A00020000423A8313C302500BD003D30BE005F
:1058B000C001BF01803120000423A8310130E40081
:1058C0006F30E300782C2C1E752C00200330E40090
:1058D000BF30E30041082500BE002000400825003D
:1058E000BD0098312000A926A8318031F127A831C8
:1058F000B031182F03302500BA00BE30B900013096
:10590000BC006D30BB00A03120008227A831883157
:10591000E927A831B031182FAC1E9A2C0020033093
:10592000E400CA30E30021000D1222000D12200015
:10593000AE01BA2C2C1EA12C00200330E400C13093
:10594000E30003302500B9002730BB001030BA0057
:105950000130BD00F430BC00A03120009025A831FA
:1059600021000D1222000D1601302000AE00803102
:10597000F127A831B031182F03302500BA00C0300C
:10598000B9000330BC00CA30BB00A0312000822720
:10599000A83102302500B900BB01BA01BD01BC012C
:1059A000A03120009025A83121000D1222000D12F7
:1059B0002000AE018831E927A831B031182FAC178B
:1059C0002500B901BA016F30BB009E30BC00EE303B
:1059D000BD00E030BE008030BF009E30C0000A3005
:1059E000C100C2019E30C3002A30C400C5019C30F2
:1059F000C6003A30C7000A30C800C901CA01CB014D
:105A00000130CC00CD01CE003A30CF000A30D000BA
:105A1000E030D1008030D2003A30D300D401D5013B
:105A20000130D600A03120006121A831AC1E382DF4
:105A30002300C6012200E0011E30DF00E201143025
:105A4000E1006208E6006108E5006008E4005F0824
:105A5000E300EC010230EB002000E801E7018031B7
:105A6000E727A8318031E227A831AC122C120100BF
:105A7000B031182FAC172500B901BA016F30BB0047
:105A80009E30BC00EE30BD00E030BE008030BF0074
:105A90009E30C0000A30C100C201EE30C3003E306B
:105AA000C4000830C5009E30C6000A30C700E03090
:105AB000C8008030C9003A30CA00CB01CC01CD010A
:105AC0000130CE003A30CF000A30D000E030D100B3
:105AD0008030D2003A30D300D401D5010130D60055
:105AE000A03120006121A831B031182F2500B90163
:105AF000BA01BB017A30BC000830BD00EE30BE00F8
:105B0000B630BF00C001CF30C100EE30C2000A3055
:105B1000C300EE30C400C5011A30C600EE30C70025
:105B20007A30C8003830C9001A30CA00EE30CB00D5
